{
  "contractName": "summation",
  "abi": [
    {
      "inputs": [
        {
          "internalType": "uint256",
          "name": "n",
          "type": "uint256"
        }
      ],
      "name": "sum_of_n_terms_forloop",
      "outputs": [
        {
          "internalType": "uint256",
          "name": "sum",
          "type": "uint256"
        }
      ],
      "stateMutability": "pure",
      "type": "function",
      "constant": true
    },
    {
      "inputs": [
        {
          "internalType": "uint256",
          "name": "n",
          "type": "uint256"
        }
      ],
      "name": "sum_of_n_terms_whileloop",
      "outputs": [
        {
          "internalType": "uint256",
          "name": "sum",
          "type": "uint256"
        }
      ],
      "stateMutability": "pure",
      "type": "function",
      "constant": true
    },
    {
      "inputs": [
        {
          "internalType": "uint256",
          "name": "n",
          "type": "uint256"
        }
      ],
      "name": "sum_of_n_terms_dowhileloop",
      "outputs": [
        {
          "internalType": "uint256",
          "name": "sum",
          "type": "uint256"
        }
      ],
      "stateMutability": "pure",
      "type": "function",
      "constant": true
    }
  ],
  "bytecode": "0x608060405234801561001057600080fd5b50610321806100206000396000f3fe608060405234801561001057600080fd5b50600436106100415760003560e01c80637ad5f59814610046578063d584908914610076578063d793b498146100a6575b600080fd5b610060600480360381019061005b91906101a9565b6100d6565b60405161006d91906101e1565b60405180910390f35b610090600480360381019061008b91906101a9565b610117565b60405161009d91906101e1565b60405180910390f35b6100c060048036038101906100bb91906101a9565b610154565b6040516100cd91906101e1565b60405180910390f35b600080600090506000600190505b83811161010d5780826100f791906101fc565b915060018161010691906101fc565b90506100e4565b8192505050919050565b600080600090506000600190505b808261013191906101fc565b915060018161014091906101fc565b905083811115610125578192505050919050565b600080600090506000600190505b83811161018a57808261017591906101fc565b915080806101829061025c565b915050610162565b5080915050919050565b6000813590506101a3816102d4565b92915050565b6000602082840312156101bb57600080fd5b60006101c984828501610194565b91505092915050565b6101db81610252565b82525050565b60006020820190506101f660008301846101d2565b92915050565b600061020782610252565b915061021283610252565b9250827fffffffffffffffffffffffffffffffffffffffffffffffffffffffffffffffff03821115610247576102466102a5565b5b828201905092915050565b6000819050919050565b600061026782610252565b91507fffffffffffffffffffffffffffffffffffffffffffffffffffffffffffffffff82141561029a576102996102a5565b5b600182019050919050565b7f4e487b7100000000000000000000000000000000000000000000000000000000600052601160045260246000fd5b6102dd81610252565b81146102e857600080fd5b5056fea26469706673582212201ff907badb18930410d9ec134c456dbadb257eee65b20ed9bdf24ef03e0fe04564736f6c63430008010033",
  "immutableReferences": {},
  "source": "// SPDX-License-Identifier: MIT\npragma solidity 0.8.1;\n\ncontract summation {\n\nfunction sum_of_n_terms_forloop(uint n) public pure returns(uint sum){\n  uint s=0;\n  for (uint i=1; i<=n; i++){\n    s=s+i;\n    }\n  sum=s;\n}\n\nfunction sum_of_n_terms_whileloop(uint n) public pure returns(uint sum){\n      uint s=0;\n      uint i=1;\n      while(i <=n ){\n          s=s+i;\n          i=i+1;\n      }\n      sum = s;\n    }\n    \nfunction sum_of_n_terms_dowhileloop(uint n) public pure returns(uint sum){\n      uint s=0;\n      uint i=1;\n      do{\n          s=s+i;\n          i=i+1;\n      } while(i<=n);\n      sum=s;\n    }\n}",
  "sourcePath": "C:/MyDrive/Solidity-codes/Solidity-In-Action/practice-solidity/sum_of_n_terms/contracts/summation.sol",
  "compiler": {
    "name": "solc",
    "version": "0.8.1+commit.df193b15.Emscripten.clang"
  },
  "schemaVersion": "3.4.1",
  "updatedAt": "2021-09-21T07:56:04.269Z",
  "networkType": "ethereum",
  "devdoc": {
    "kind": "dev",
    "methods": {},
    "version": 1
  },
  "userdoc": {
    "kind": "user",
    "methods": {},
    "version": 1
  }
}