{
  "contractName": "password",
  "abi": [
    {
      "inputs": [
        {
          "internalType": "string",
          "name": "",
          "type": "string"
        }
      ],
      "name": "credentialMapping",
      "outputs": [
        {
          "internalType": "string",
          "name": "websiteName",
          "type": "string"
        },
        {
          "internalType": "string",
          "name": "url",
          "type": "string"
        },
        {
          "internalType": "string",
          "name": "userName",
          "type": "string"
        },
        {
          "internalType": "string",
          "name": "password",
          "type": "string"
        }
      ],
      "stateMutability": "view",
      "type": "function",
      "constant": true
    },
    {
      "inputs": [],
      "name": "masterPassword",
      "outputs": [
        {
          "internalType": "string",
          "name": "",
          "type": "string"
        }
      ],
      "stateMutability": "view",
      "type": "function",
      "constant": true
    },
    {
      "inputs": [
        {
          "internalType": "string",
          "name": "_masterPassword",
          "type": "string"
        },
        {
          "internalType": "string",
          "name": "_websiteName",
          "type": "string"
        },
        {
          "internalType": "string",
          "name": "_url",
          "type": "string"
        },
        {
          "internalType": "string",
          "name": "_userName",
          "type": "string"
        },
        {
          "internalType": "string",
          "name": "_password",
          "type": "string"
        }
      ],
      "name": "addCredentials",
      "outputs": [],
      "stateMutability": "nonpayable",
      "type": "function"
    },
    {
      "inputs": [
        {
          "internalType": "string",
          "name": "_masterPassword",
          "type": "string"
        },
        {
          "internalType": "string",
          "name": "_websiteName",
          "type": "string"
        }
      ],
      "name": "retrieveCredentials",
      "outputs": [
        {
          "internalType": "string",
          "name": "websiteName",
          "type": "string"
        },
        {
          "internalType": "string",
          "name": "url",
          "type": "string"
        },
        {
          "internalType": "string",
          "name": "userName",
          "type": "string"
        },
        {
          "internalType": "string",
          "name": "password",
          "type": "string"
        }
      ],
      "stateMutability": "view",
      "type": "function",
      "constant": true
    }
  ],
  "bytecode": "0x60806040526040518060400160405280600881526020017f6162636431323334000000000000000000000000000000000000000000000000815250600090805190602001906200005192919062000066565b503480156200005f57600080fd5b506200017b565b828054620000749062000116565b90600052602060002090601f016020900481019282620000985760008555620000e4565b82601f10620000b357805160ff1916838001178555620000e4565b82800160010185558215620000e4579182015b82811115620000e3578251825591602001919060010190620000c6565b5b509050620000f39190620000f7565b5090565b5b8082111562000112576000816000905550600101620000f8565b5090565b600060028204905060018216806200012f57607f821691505b602082108114156200014657620001456200014c565b5b50919050565b7f4e487b7100000000000000000000000000000000000000000000000000000000600052602260045260246000fd5b610ef6806200018b6000396000f3fe608060405234801561001057600080fd5b506004361061004c5760003560e01c806328e9765c1461005157806332a49538146100845780638462dc18146100a0578063bc84359a146100d3575b600080fd5b61006b600480360381019061006691906109b9565b6100f1565b60405161007b9493929190610c70565b60405180910390f35b61009e60048036038101906100999190610a25565b610427565b005b6100ba60048036038101906100b59190610978565b610579565b6040516100ca9493929190610c70565b60405180910390f35b6100db6107df565b6040516100e89190610c4e565b60405180910390f35b60608060608060006040516020016101099190610c37565b60405160208183030381529060405280519060200120866040516020016101309190610c20565b6040516020818303038152906040528051906020012014156103e357600060018660405161015e9190610c20565b908152602001604051809103902060405180608001604052908160008201805461018790610dc5565b80601f01602080910402602001604051908101604052809291908181526020018280546101b390610dc5565b80156102005780601f106101d557610100808354040283529160200191610200565b820191906000526020600020905b8154815290600101906020018083116101e357829003601f168201915b5050505050815260200160018201805461021990610dc5565b80601f016020809104026020016040519081016040528092919081815260200182805461024590610dc5565b80156102925780601f1061026757610100808354040283529160200191610292565b820191906000526020600020905b81548152906001019060200180831161027557829003601f168201915b505050505081526020016002820180546102ab90610dc5565b80601f01602080910402602001604051908101604052809291908181526020018280546102d790610dc5565b80156103245780601f106102f957610100808354040283529160200191610324565b820191906000526020600020905b81548152906001019060200180831161030757829003601f168201915b5050505050815260200160038201805461033d90610dc5565b80601f016020809104026020016040519081016040528092919081815260200182805461036990610dc5565b80156103b65780601f1061038b576101008083540402835291602001916103b6565b820191906000526020600020905b81548152906001019060200180831161039957829003601f168201915b5050505050815250509050806000015181602001518260400151836060015194509450945094505061041e565b6040517f08c379a000000000000000000000000000000000000000000000000000000000815260040161041590610cd1565b60405180910390fd5b92959194509250565b60006040516020016104399190610c37565b60405160208183030381529060405280519060200120856040516020016104609190610c20565b604051602081830303815290604052805190602001201415610537576040518060800160405280858152602001848152602001838152602001828152506001856040516104ad9190610c20565b908152602001604051809103902060008201518160000190805190602001906104d792919061086d565b5060208201518160010190805190602001906104f492919061086d565b50604082015181600201908051906020019061051192919061086d565b50606082015181600301908051906020019061052e92919061086d565b50905050610572565b6040517f08c379a000000000000000000000000000000000000000000000000000000000815260040161056990610cd1565b60405180910390fd5b5050505050565b6001818051602081018201805184825260208301602085012081835280955050505050506000915090508060000180546105b290610dc5565b80601f01602080910402602001604051908101604052809291908181526020018280546105de90610dc5565b801561062b5780601f106106005761010080835404028352916020019161062b565b820191906000526020600020905b81548152906001019060200180831161060e57829003601f168201915b50505050509080600101805461064090610dc5565b80601f016020809104026020016040519081016040528092919081815260200182805461066c90610dc5565b80156106b95780601f1061068e576101008083540402835291602001916106b9565b820191906000526020600020905b81548152906001019060200180831161069c57829003601f168201915b5050505050908060020180546106ce90610dc5565b80601f01602080910402602001604051908101604052809291908181526020018280546106fa90610dc5565b80156107475780601f1061071c57610100808354040283529160200191610747565b820191906000526020600020905b81548152906001019060200180831161072a57829003601f168201915b50505050509080600301805461075c90610dc5565b80601f016020809104026020016040519081016040528092919081815260200182805461078890610dc5565b80156107d55780601f106107aa576101008083540402835291602001916107d5565b820191906000526020600020905b8154815290600101906020018083116107b857829003601f168201915b5050505050905084565b600080546107ec90610dc5565b80601f016020809104026020016040519081016040528092919081815260200182805461081890610dc5565b80156108655780601f1061083a57610100808354040283529160200191610865565b820191906000526020600020905b81548152906001019060200180831161084857829003601f168201915b505050505081565b82805461087990610dc5565b90600052602060002090601f01602090048101928261089b57600085556108e2565b82601f106108b457805160ff19168380011785556108e2565b828001600101855582156108e2579182015b828111156108e15782518255916020019190600101906108c6565b5b5090506108ef91906108f3565b5090565b5b8082111561090c5760008160009055506001016108f4565b5090565b600061092361091e84610d16565b610cf1565b90508281526020810184848401111561093b57600080fd5b610946848285610d83565b509392505050565b600082601f83011261095f57600080fd5b813561096f848260208601610910565b91505092915050565b60006020828403121561098a57600080fd5b600082013567ffffffffffffffff8111156109a457600080fd5b6109b08482850161094e565b91505092915050565b600080604083850312156109cc57600080fd5b600083013567ffffffffffffffff8111156109e657600080fd5b6109f28582860161094e565b925050602083013567ffffffffffffffff811115610a0f57600080fd5b610a1b8582860161094e565b9150509250929050565b600080600080600060a08688031215610a3d57600080fd5b600086013567ffffffffffffffff811115610a5757600080fd5b610a638882890161094e565b955050602086013567ffffffffffffffff811115610a8057600080fd5b610a8c8882890161094e565b945050604086013567ffffffffffffffff811115610aa957600080fd5b610ab58882890161094e565b935050606086013567ffffffffffffffff811115610ad257600080fd5b610ade8882890161094e565b925050608086013567ffffffffffffffff811115610afb57600080fd5b610b078882890161094e565b9150509295509295909350565b6000610b1f82610d5c565b610b298185610d67565b9350610b39818560208601610d92565b610b4281610e86565b840191505092915050565b6000610b5882610d5c565b610b628185610d78565b9350610b72818560208601610d92565b80840191505092915050565b60008154610b8b81610dc5565b610b958186610d78565b94506001821660008114610bb05760018114610bc157610bf4565b60ff19831686528186019350610bf4565b610bca85610d47565b60005b83811015610bec57815481890152600182019150602081019050610bcd565b838801955050505b50505092915050565b6000610c0a601583610d67565b9150610c1582610e97565b602082019050919050565b6000610c2c8284610b4d565b915081905092915050565b6000610c438284610b7e565b915081905092915050565b60006020820190508181036000830152610c688184610b14565b905092915050565b60006080820190508181036000830152610c8a8187610b14565b90508181036020830152610c9e8186610b14565b90508181036040830152610cb28185610b14565b90508181036060830152610cc68184610b14565b905095945050505050565b60006020820190508181036000830152610cea81610bfd565b9050919050565b6000610cfb610d0c565b9050610d078282610df7565b919050565b6000604051905090565b600067ffffffffffffffff821115610d3157610d30610e57565b5b610d3a82610e86565b9050602081019050919050565b60008190508160005260206000209050919050565b600081519050919050565b600082825260208201905092915050565b600081905092915050565b82818337600083830152505050565b60005b83811015610db0578082015181840152602081019050610d95565b83811115610dbf576000848401525b50505050565b60006002820490506001821680610ddd57607f821691505b60208210811415610df157610df0610e28565b5b50919050565b610e0082610e86565b810181811067ffffffffffffffff82111715610e1f57610e1e610e57565b5b80604052505050565b7f4e487b7100000000000000000000000000000000000000000000000000000000600052602260045260246000fd5b7f4e487b7100000000000000000000000000000000000000000000000000000000600052604160045260246000fd5b6000601f19601f8301169050919050565b7f57726f6e67204d61737465722050617373776f7264000000000000000000000060008201525056fea26469706673582212200aa6415607c02540ff8ce439b542d173df812801aeaf0849e88ae179431e0db664736f6c63430008010033",
  "immutableReferences": {},
  "source": "// SPDX-License-Identifier: MIT\npragma solidity 0.8.1;\n\ncontract password {\n\n string public masterPassword=\"abcd1234\";\n\nstruct Credentials{\n  string websiteName;\n  string url;\n  string userName;\n  string password;\n  \n}\n\nmapping (string =>Credentials) public credentialMapping;\n \n function addCredentials(string memory _masterPassword,string memory _websiteName, string memory _url, string memory _userName, string memory _password) public{\n\n   if (keccak256(abi.encodePacked(_masterPassword)) == keccak256(abi.encodePacked(masterPassword))){\n\n     credentialMapping[_websiteName]=Credentials(_websiteName,_url,_userName,_password);\n\n   }\n\n   else{\n     revert(\"Wrong Master Password\");\n\n   }\n\n }\n \n  \n function retrieveCredentials(string memory _masterPassword,string memory _websiteName ) public view returns(string memory websiteName, string memory url, string memory userName, string memory password){\n\n   if (keccak256(abi.encodePacked(_masterPassword)) == keccak256(abi.encodePacked(masterPassword))){\n\n     Credentials memory p = credentialMapping[_websiteName];\n     return (p.websiteName, p.url, p.userName, p.password);\n\n   }\n\n   else{\n     revert(\"Wrong Master Password\");\n\n   }\n\n }\n\n \n}\n",
  "sourcePath": "C:/MyDrive/Solidity-codes/Solidity-In-Action/practice-solidity/password_manager/contracts/password.sol",
  "compiler": {
    "name": "solc",
    "version": "0.8.1+commit.df193b15.Emscripten.clang"
  },
  "schemaVersion": "3.4.1",
  "updatedAt": "2021-09-21T19:36:17.519Z",
  "networkType": "ethereum",
  "devdoc": {
    "kind": "dev",
    "methods": {},
    "version": 1
  },
  "userdoc": {
    "kind": "user",
    "methods": {},
    "version": 1
  }
}