{
  "contractName": "dynamicArray",
  "abi": [
    {
      "inputs": [
        {
          "internalType": "uint256",
          "name": "",
          "type": "uint256"
        }
      ],
      "name": "numbers",
      "outputs": [
        {
          "internalType": "uint256",
          "name": "",
          "type": "uint256"
        }
      ],
      "stateMutability": "view",
      "type": "function",
      "constant": true
    },
    {
      "inputs": [
        {
          "internalType": "uint256",
          "name": "x",
          "type": "uint256"
        }
      ],
      "name": "insert",
      "outputs": [],
      "stateMutability": "nonpayable",
      "type": "function"
    },
    {
      "inputs": [],
      "name": "remove",
      "outputs": [],
      "stateMutability": "nonpayable",
      "type": "function"
    },
    {
      "inputs": [],
      "name": "returnLength",
      "outputs": [
        {
          "internalType": "uint256",
          "name": "",
          "type": "uint256"
        }
      ],
      "stateMutability": "view",
      "type": "function",
      "constant": true
    }
  ],
  "bytecode": "0x60806040526040518060800160405280600160ff168152602001600260ff168152602001600360ff168152602001600560ff168152506000906004610045929190610058565b5034801561005257600080fd5b506100c7565b828054828255906000526020600020908101928215610099579160200282015b82811115610098578251829060ff16905591602001919060010190610078565b5b5090506100a691906100aa565b5090565b5b808211156100c35760008160009055506001016100ab565b5090565b610230806100d66000396000f3fe608060405234801561001057600080fd5b506004361061004c5760003560e01c806390b5561d14610051578063a4081e161461006d578063a7f437791461008b578063d39fa23314610095575b600080fd5b61006b60048036038101906100669190610186565b6100c5565b005b6100756100f1565b60405161008291906101be565b60405180910390f35b6100936100fd565b005b6100af60048036038101906100aa9190610186565b61014d565b6040516100bc91906101be565b60405180910390f35b600081908060018154018082558091505060019003906000526020600020016000909190919091505550565b60008080549050905090565b6000805480610135577f4e487b7100000000000000000000000000000000000000000000000000000000600052603160045260246000fd5b60019003818190600052602060002001600090559055565b6000818154811061015d57600080fd5b906000526020600020016000915090505481565b600081359050610180816101e3565b92915050565b60006020828403121561019857600080fd5b60006101a684828501610171565b91505092915050565b6101b8816101d9565b82525050565b60006020820190506101d360008301846101af565b92915050565b6000819050919050565b6101ec816101d9565b81146101f757600080fd5b5056fea26469706673582212206da40fcd7b596590fcad34e1c0bde0e56eaf343623ad1b12da43b73e8c76bfa264736f6c63430008010033",
  "immutableReferences": {},
  "source": "// SPDX-License-Identifier: MIT\npragma solidity 0.8.1;\n\ncontract dynamicArray {\n    uint256[] public numbers = [1, 2, 3, 5];\n\n    function insert(uint256 x) public {\n        numbers.push(x);\n    }\n\n    function remove() public {\n        numbers.pop();\n    }\n\n    function returnLength() public view returns (uint256) {\n        return numbers.length;\n    }\n}\n",
  "sourcePath": "E:\\ww-solidity\\struct\\contracts\\dynamicArray.sol",
  "compiler": {
    "name": "solc",
    "version": "0.8.1+commit.df193b15.Emscripten.clang"
  },
  "schemaVersion": "3.4.3",
  "updatedAt": "2021-09-02T15:11:21.876Z",
  "networkType": "ethereum",
  "devdoc": {
    "kind": "dev",
    "methods": {},
    "version": 1
  },
  "userdoc": {
    "kind": "user",
    "methods": {},
    "version": 1
  }
}