{
  "contractName": "staticArray",
  "abi": [
    {
      "inputs": [
        {
          "internalType": "uint256",
          "name": "",
          "type": "uint256"
        }
      ],
      "name": "numbers",
      "outputs": [
        {
          "internalType": "uint256",
          "name": "",
          "type": "uint256"
        }
      ],
      "stateMutability": "view",
      "type": "function",
      "constant": true
    },
    {
      "inputs": [
        {
          "internalType": "uint256",
          "name": "value",
          "type": "uint256"
        },
        {
          "internalType": "uint256",
          "name": "index",
          "type": "uint256"
        }
      ],
      "name": "insert",
      "outputs": [],
      "stateMutability": "nonpayable",
      "type": "function"
    },
    {
      "inputs": [],
      "name": "returnLength",
      "outputs": [
        {
          "internalType": "uint256",
          "name": "",
          "type": "uint256"
        }
      ],
      "stateMutability": "view",
      "type": "function",
      "constant": true
    }
  ],
  "bytecode": "0x60806040526040518060400160405280600160ff168152602001600260ff168152506000906002610031929190610044565b5034801561003e57600080fd5b506100a6565b8260088101928215610078579160200282015b82811115610077578251829060ff16905591602001919060010190610057565b5b5090506100859190610089565b5090565b5b808211156100a257600081600090555060010161008a565b5090565b610213806100b56000396000f3fe608060405234801561001057600080fd5b50600436106100415760003560e01c80631d834a1b14610046578063a4081e1614610062578063d39fa23314610080575b600080fd5b610060600480360381019061005b9190610156565b6100b0565b005b61006a6100f4565b60405161007791906101a1565b60405180910390f35b61009a6004803603810190610095919061012d565b6100fd565b6040516100a791906101a1565b60405180910390f35b81600082600881106100eb577f4e487b7100000000000000000000000000000000000000000000000000000000600052603260045260246000fd5b01819055505050565b60006008905090565b6000816008811061010d57600080fd5b016000915090505481565b600081359050610127816101c6565b92915050565b60006020828403121561013f57600080fd5b600061014d84828501610118565b91505092915050565b6000806040838503121561016957600080fd5b600061017785828601610118565b925050602061018885828601610118565b9150509250929050565b61019b816101bc565b82525050565b60006020820190506101b66000830184610192565b92915050565b6000819050919050565b6101cf816101bc565b81146101da57600080fd5b5056fea2646970667358221220a25ad0d1ada7be0f9063cf28e56088367f5eb01751dec61d1dc702886043c51c64736f6c63430008010033",
  "immutableReferences": {},
  "source": "// SPDX-License-Identifier: MIT\npragma solidity 0.8.1;\n\ncontract staticArray {\n    uint[8] public numbers = [1, 2];\n    \n    function insert(uint value, uint index) public {\n        numbers[index] = value;\n    }\n    \n    function returnLength() view public returns(uint) {\n        return numbers.length;\n    }\n}\n",
  "sourcePath": "E:\\ww-solidity\\struct\\contracts\\staticArray.sol",
  "compiler": {
    "name": "solc",
    "version": "0.8.1+commit.df193b15.Emscripten.clang"
  },
  "schemaVersion": "3.4.3",
  "updatedAt": "2021-09-02T15:11:21.231Z",
  "networkType": "ethereum",
  "devdoc": {
    "kind": "dev",
    "methods": {},
    "version": 1
  },
  "userdoc": {
    "kind": "user",
    "methods": {},
    "version": 1
  }
}