{
  "contractName": "average",
  "abi": [
    {
      "inputs": [
        {
          "internalType": "uint256",
          "name": "number",
          "type": "uint256"
        },
        {
          "internalType": "uint256[]",
          "name": "a",
          "type": "uint256[]"
        }
      ],
      "name": "find_average",
      "outputs": [
        {
          "internalType": "uint256",
          "name": "",
          "type": "uint256"
        }
      ],
      "stateMutability": "pure",
      "type": "function",
      "constant": true
    }
  ],
  "bytecode": "0x608060405234801561001057600080fd5b5061045e806100206000396000f3fe608060405234801561001057600080fd5b506004361061002b5760003560e01c8063fcc107f214610030575b600080fd5b61004a60048036038101906100459190610199565b610060565b60405161005791906101fc565b60405180910390f35b600080600090506000805b858110156100d4578481815181106100ac577f4e487b7100000000000000000000000000000000000000000000000000000000600052603260045260246000fd5b6020026020010151836100bf9190610268565b925080806100cc9061032a565b91505061006b565b5084826100e191906102be565b9050809250505092915050565b60006101016100fc8461023c565b610217565b9050808382526020820190508285602086028201111561012057600080fd5b60005b8581101561015057816101368882610184565b845260208401935060208301925050600181019050610123565b5050509392505050565b600082601f83011261016b57600080fd5b813561017b8482602086016100ee565b91505092915050565b60008135905061019381610411565b92915050565b600080604083850312156101ac57600080fd5b60006101ba85828601610184565b925050602083013567ffffffffffffffff8111156101d757600080fd5b6101e38582860161015a565b9150509250929050565b6101f6816102ef565b82525050565b600060208201905061021160008301846101ed565b92915050565b6000610221610232565b905061022d82826102f9565b919050565b6000604051905090565b600067ffffffffffffffff821115610257576102566103d1565b5b602082029050602081019050919050565b6000610273826102ef565b915061027e836102ef565b9250827fffffffffffffffffffffffffffffffffffffffffffffffffffffffffffffffff038211156102b3576102b2610373565b5b828201905092915050565b60006102c9826102ef565b91506102d4836102ef565b9250826102e4576102e36103a2565b5b828204905092915050565b6000819050919050565b61030282610400565b810181811067ffffffffffffffff82111715610321576103206103d1565b5b80604052505050565b6000610335826102ef565b91507fffffffffffffffffffffffffffffffffffffffffffffffffffffffffffffffff82141561036857610367610373565b5b600182019050919050565b7f4e487b7100000000000000000000000000000000000000000000000000000000600052601160045260246000fd5b7f4e487b7100000000000000000000000000000000000000000000000000000000600052601260045260246000fd5b7f4e487b7100000000000000000000000000000000000000000000000000000000600052604160045260246000fd5b6000601f19601f8301169050919050565b61041a816102ef565b811461042557600080fd5b5056fea2646970667358221220225df883cf4b4a5be5ed13e794f83a07666128c8feeac658c75be0d4a55fa0fe64736f6c63430008010033",
  "immutableReferences": {},
  "source": "// SPDX-License-Identifier: MIT\npragma solidity 0.8.1;\n\ncontract average {\n\nfunction find_average(uint number, uint[] memory a) public pure returns(uint){\n    \nuint summation=0;\nuint total_average=0;\n\n  for (uint i=0;i<number;i++){ \n    summation=summation+a[i];\n  }\n  total_average=summation/number;\n  return total_average;\n\n}\n\n\n}",
  "sourcePath": "C:/MyDrive/Solidity-codes/Solidity-In-Action/practice-solidity/average_of_given_numbers/contracts/average.sol",
  "compiler": {
    "name": "solc",
    "version": "0.8.1+commit.df193b15.Emscripten.clang"
  },
  "schemaVersion": "3.4.1",
  "updatedAt": "2021-09-21T19:58:13.302Z",
  "networkType": "ethereum",
  "devdoc": {
    "kind": "dev",
    "methods": {},
    "version": 1
  },
  "userdoc": {
    "kind": "user",
    "methods": {},
    "version": 1
  }
}