{
  "contractName": "guessing",
  "abi": [
    {
      "inputs": [],
      "name": "Status",
      "outputs": [
        {
          "internalType": "enum guessing.PlayerState",
          "name": "",
          "type": "uint8"
        }
      ],
      "stateMutability": "view",
      "type": "function",
      "constant": true
    },
    {
      "inputs": [],
      "name": "tryattempt",
      "outputs": [],
      "stateMutability": "payable",
      "type": "function",
      "payable": true
    },
    {
      "inputs": [],
      "name": "setWon",
      "outputs": [],
      "stateMutability": "nonpayable",
      "type": "function"
    },
    {
      "inputs": [],
      "name": "setNotWon",
      "outputs": [],
      "stateMutability": "nonpayable",
      "type": "function"
    }
  ],
  "bytecode": "0x608060405260008055600a60025534801561001957600080fd5b506102f2806100296000396000f3fe60806040526004361061003f5760003560e01c806345f09ce9146100445780636cd810501461006f578063c48e2b3414610086578063efad79ec14610090575b600080fd5b34801561005057600080fd5b506100596100a7565b60405161006691906101b7565b60405180910390f35b34801561007b57600080fd5b506100846100ba565b005b61008e61010d565b005b34801561009c57600080fd5b506100a5610156565b005b600160009054906101000a900460ff1681565b6000600160006101000a81548160ff02191690836001811115610106577f4e487b7100000000000000000000000000000000000000000000000000000000600052602160045260246000fd5b0217905550565b600a600054111561011d57600080fd5b60008081548092919061012f90610201565b919050555060025434141561014b57610146610156565b610154565b6101536100ba565b5b565b60018060006101000a81548160ff021916908360018111156101a1577f4e487b7100000000000000000000000000000000000000000000000000000000600052602160045260246000fd5b0217905550565b6101b1816101ef565b82525050565b60006020820190506101cc60008301846101a8565b92915050565b60008190506101e0826102a8565b919050565b6000819050919050565b60006101fa826101d2565b9050919050565b600061020c826101e5565b91507fffffffffffffffffffffffffffffffffffffffffffffffffffffffffffffffff82141561023f5761023e61024a565b5b600182019050919050565b7f4e487b7100000000000000000000000000000000000000000000000000000000600052601160045260246000fd5b7f4e487b7100000000000000000000000000000000000000000000000000000000600052602160045260246000fd5b600281106102b9576102b8610279565b5b5056fea2646970667358221220a5cc51b2acd9008e194f564c08fe0e2bc88514a861fe7f103773c20d1ad19a7464736f6c63430008010033",
  "immutableReferences": {},
  "source": "// SPDX-License-Identifier: MIT\npragma solidity 0.8.1;\n\ncontract guessing {\n\nuint number_of_times_attempted=0;\n\nenum PlayerState {\n         PLAYER_DID_NOT_GUESS, PLAYER_WON \n    }\n\nPlayerState public Status;\n\nmodifier CheckAttempts() {\n      require(number_of_times_attempted <= 10);\n       _;\n    }\n\nfunction random() private view returns (uint) {\n    uint randomHash = uint(keccak256(abi.encodePacked(block.difficulty, block.timestamp)));\n    return randomHash % 100;\n} \n\n//uint guess_number= random();\nuint guess_number=10;\n\nfunction tryattempt() public payable CheckAttempts {\n  number_of_times_attempted++;\n\n  if (msg.value==guess_number){\n    setWon();\n  }\n\n  else{\n    setNotWon();\n  }\n}\n\nfunction setWon() public {\n        Status = PlayerState.PLAYER_WON;\n    }\n    \n    function setNotWon() public {\n        Status = PlayerState.PLAYER_DID_NOT_GUESS;\n    }\n\n\n}\n\n",
  "sourcePath": "C:/MyDrive/Solidity-codes/Solidity-In-Action/practice-solidity/guessing_number/contracts/guessing.sol",
  "compiler": {
    "name": "solc",
    "version": "0.8.1+commit.df193b15.Emscripten.clang"
  },
  "schemaVersion": "3.4.1",
  "updatedAt": "2021-09-21T12:04:07.095Z",
  "networkType": "ethereum",
  "devdoc": {
    "kind": "dev",
    "methods": {},
    "version": 1
  },
  "userdoc": {
    "kind": "user",
    "methods": {},
    "version": 1
  }
}