{
  "contractName": "newBook",
  "abi": [
    {
      "inputs": [
        {
          "internalType": "uint256",
          "name": "",
          "type": "uint256"
        }
      ],
      "name": "BookDetails",
      "outputs": [
        {
          "internalType": "uint256",
          "name": "id",
          "type": "uint256"
        },
        {
          "internalType": "string",
          "name": "title",
          "type": "string"
        },
        {
          "internalType": "string",
          "name": "author",
          "type": "string"
        },
        {
          "components": [
            {
              "internalType": "uint256",
              "name": "id",
              "type": "uint256"
            },
            {
              "internalType": "address",
              "name": "from",
              "type": "address"
            },
            {
              "internalType": "uint256",
              "name": "amount",
              "type": "uint256"
            },
            {
              "components": [
                {
                  "internalType": "string",
                  "name": "name",
                  "type": "string"
                },
                {
                  "internalType": "string",
                  "name": "IFSC",
                  "type": "string"
                }
              ],
              "internalType": "struct newBook.Bank",
              "name": "bankDetails",
              "type": "tuple"
            }
          ],
          "internalType": "struct newBook.Payment",
          "name": "paymentDetails",
          "type": "tuple"
        }
      ],
      "stateMutability": "view",
      "type": "function",
      "constant": true
    },
    {
      "inputs": [
        {
          "internalType": "uint256",
          "name": "_id",
          "type": "uint256"
        },
        {
          "internalType": "string",
          "name": "_title",
          "type": "string"
        },
        {
          "internalType": "string",
          "name": "_author",
          "type": "string"
        },
        {
          "internalType": "uint256",
          "name": "_amount",
          "type": "uint256"
        },
        {
          "internalType": "string",
          "name": "_bankName",
          "type": "string"
        },
        {
          "internalType": "string",
          "name": "_IFSC",
          "type": "string"
        }
      ],
      "name": "newBookEntry",
      "outputs": [],
      "stateMutability": "nonpayable",
      "type": "function"
    }
  ],
  "bytecode": "0x608060405234801561001057600080fd5b50610adf806100206000396000f3fe608060405234801561001057600080fd5b50600436106100365760003560e01c80633989f5161461003b5780639b4381aa1461006e575b600080fd5b6100556004803603810190610050919061060d565b61008a565b6040516100659493929190610865565b60405180910390f35b61008860048036038101906100839190610636565b610376565b005b60006020528060005260406000206000915090508060000154908060010180546100b3906109c0565b80601f01602080910402602001604051908101604052809291908181526020018280546100df906109c0565b801561012c5780601f106101015761010080835404028352916020019161012c565b820191906000526020600020905b81548152906001019060200180831161010f57829003601f168201915b505050505090806002018054610141906109c0565b80601f016020809104026020016040519081016040528092919081815260200182805461016d906109c0565b80156101ba5780601f1061018f576101008083540402835291602001916101ba565b820191906000526020600020905b81548152906001019060200180831161019d57829003601f168201915b50505050509080600301604051806080016040529081600082015481526020016001820160009054906101000a900473ffffffffffffffffffffffffffffffffffffffff1673ffffffffffffffffffffffffffffffffffffffff1673ffffffffffffffffffffffffffffffffffffffff1681526020016002820154815260200160038201604051806040016040529081600082018054610259906109c0565b80601f0160208091040260200160405190810160405280929190818152602001828054610285906109c0565b80156102d25780601f106102a7576101008083540402835291602001916102d2565b820191906000526020600020905b8154815290600101906020018083116102b557829003601f168201915b505050505081526020016001820180546102eb906109c0565b80601f0160208091040260200160405190810160405280929190818152602001828054610317906109c0565b80156103645780601f1061033957610100808354040283529160200191610364565b820191906000526020600020905b81548152906001019060200180831161034757829003601f168201915b50505050508152505081525050905084565b604051806080016040528087815260200186815260200185815260200160405180608001604052808981526020013373ffffffffffffffffffffffffffffffffffffffff1681526020018681526020016040518060400160405280878152602001868152508152508152506000808881526020019081526020016000206000820151816000015560208201518160010190805190602001906104199291906104ed565b5060408201518160020190805190602001906104369291906104ed565b506060820151816003016000820151816000015560208201518160010160006101000a81548173ffffffffffffffffffffffffffffffffffffffff021916908373ffffffffffffffffffffffffffffffffffffffff1602179055506040820151816002015560608201518160030160008201518160000190805190602001906104c09291906104ed565b5060208201518160010190805190602001906104dd9291906104ed565b5050505050905050505050505050565b8280546104f9906109c0565b90600052602060002090601f01602090048101928261051b5760008555610562565b82601f1061053457805160ff1916838001178555610562565b82800160010185558215610562579182015b82811115610561578251825591602001919060010190610546565b5b50905061056f9190610573565b5090565b5b8082111561058c576000816000905550600101610574565b5090565b60006105a361059e846108e4565b6108bf565b9050828152602081018484840111156105bb57600080fd5b6105c684828561097e565b509392505050565b600082601f8301126105df57600080fd5b81356105ef848260208601610590565b91505092915050565b60008135905061060781610a92565b92915050565b60006020828403121561061f57600080fd5b600061062d848285016105f8565b91505092915050565b60008060008060008060c0878903121561064f57600080fd5b600061065d89828a016105f8565b965050602087013567ffffffffffffffff81111561067a57600080fd5b61068689828a016105ce565b955050604087013567ffffffffffffffff8111156106a357600080fd5b6106af89828a016105ce565b94505060606106c089828a016105f8565b935050608087013567ffffffffffffffff8111156106dd57600080fd5b6106e989828a016105ce565b92505060a087013567ffffffffffffffff81111561070657600080fd5b61071289828a016105ce565b9150509295509295509295565b61072881610942565b82525050565b600061073982610915565b6107438185610920565b935061075381856020860161098d565b61075c81610a81565b840191505092915050565b600061077282610915565b61077c8185610931565b935061078c81856020860161098d565b61079581610a81565b840191505092915050565b600060408301600083015184820360008601526107bd828261072e565b915050602083015184820360208601526107d7828261072e565b9150508091505092915050565b60006080830160008301516107fc6000860182610847565b50602083015161080f602086018261071f565b5060408301516108226040860182610847565b506060830151848203606086015261083a82826107a0565b9150508091505092915050565b61085081610974565b82525050565b61085f81610974565b82525050565b600060808201905061087a6000830187610856565b818103602083015261088c8186610767565b905081810360408301526108a08185610767565b905081810360608301526108b481846107e4565b905095945050505050565b60006108c96108da565b90506108d582826109f2565b919050565b6000604051905090565b600067ffffffffffffffff8211156108ff576108fe610a52565b5b61090882610a81565b9050602081019050919050565b600081519050919050565b600082825260208201905092915050565b600082825260208201905092915050565b600061094d82610954565b9050919050565b600073ffffffffffffffffffffffffffffffffffffffff82169050919050565b6000819050919050565b82818337600083830152505050565b60005b838110156109ab578082015181840152602081019050610990565b838111156109ba576000848401525b50505050565b600060028204905060018216806109d857607f821691505b602082108114156109ec576109eb610a23565b5b50919050565b6109fb82610a81565b810181811067ffffffffffffffff82111715610a1a57610a19610a52565b5b80604052505050565b7f4e487b7100000000000000000000000000000000000000000000000000000000600052602260045260246000fd5b7f4e487b7100000000000000000000000000000000000000000000000000000000600052604160045260246000fd5b6000601f19601f8301169050919050565b610a9b81610974565b8114610aa657600080fd5b5056fea2646970667358221220b6c8b6fcba13edf368eb4cdc310c1c887296a86e9a5bfdc67c123f52692ebe6d64736f6c63430008010033",
  "immutableReferences": {},
  "source": "// SPDX-License-Identifier: MIT\r\npragma solidity 0.8.1;\r\n\r\ncontract newBook{\r\n   struct Book { \r\n        uint id;\r\n        string title;\r\n        string author;\r\n        Payment paymentDetails;\r\n   }\r\n   \r\n   struct Payment {\r\n       uint id;\r\n       address from; \r\n       uint amount;\r\n       Bank bankDetails;\r\n   }\r\n   \r\n   struct Bank {\r\n       string name;\r\n       string IFSC;\r\n   }\r\n   \r\n    mapping(uint => Book) public BookDetails;\r\n    \r\n    function newBookEntry(uint _id, string memory _title, string memory _author, uint _amount,\r\n                    string memory _bankName, string memory _IFSC) public {\r\n        BookDetails[_id] = Book(_id, _title, _author, Payment(_id, msg.sender, _amount,Bank(_bankName, _IFSC)));\r\n    }\r\n    \r\n    \r\n    \r\n}",
  "sourcePath": "C:/MyDrive/Solidity-codes/Solidity-In-Action/serve-side2/contracts/bookShopContract.sol",
  "compiler": {
    "name": "solc",
    "version": "0.8.1+commit.df193b15.Emscripten.clang"
  },
  "schemaVersion": "3.4.1",
  "updatedAt": "2021-09-19T11:51:10.721Z",
  "networkType": "ethereum",
  "devdoc": {
    "kind": "dev",
    "methods": {},
    "version": 1
  },
  "userdoc": {
    "kind": "user",
    "methods": {},
    "version": 1
  }
}