{
  "contractName": "bank_application",
  "abi": [
    {
      "inputs": [],
      "stateMutability": "nonpayable",
      "type": "constructor"
    },
    {
      "inputs": [
        {
          "internalType": "uint256",
          "name": "",
          "type": "uint256"
        }
      ],
      "name": "Account_holder_details",
      "outputs": [
        {
          "internalType": "uint256",
          "name": "customerNumber",
          "type": "uint256"
        },
        {
          "internalType": "address payable",
          "name": "accountAddress",
          "type": "address"
        },
        {
          "internalType": "string",
          "name": "firstName",
          "type": "string"
        },
        {
          "internalType": "string",
          "name": "lastName",
          "type": "string"
        },
        {
          "internalType": "string",
          "name": "Address",
          "type": "string"
        },
        {
          "internalType": "string",
          "name": "DOB",
          "type": "string"
        },
        {
          "internalType": "uint256",
          "name": "phoneNumber",
          "type": "uint256"
        },
        {
          "internalType": "string",
          "name": "PANcard",
          "type": "string"
        },
        {
          "internalType": "enum bank_application.AccountType",
          "name": "account",
          "type": "uint8"
        },
        {
          "internalType": "enum bank_application.AccountStatus",
          "name": "status",
          "type": "uint8"
        }
      ],
      "stateMutability": "view",
      "type": "function",
      "constant": true
    },
    {
      "inputs": [],
      "name": "owner",
      "outputs": [
        {
          "internalType": "address",
          "name": "",
          "type": "address"
        }
      ],
      "stateMutability": "view",
      "type": "function",
      "constant": true
    },
    {
      "inputs": [
        {
          "internalType": "uint256",
          "name": "_customerNumber",
          "type": "uint256"
        },
        {
          "internalType": "string",
          "name": "_firstName",
          "type": "string"
        },
        {
          "internalType": "string",
          "name": "_lastName",
          "type": "string"
        },
        {
          "internalType": "string",
          "name": "_Address",
          "type": "string"
        },
        {
          "internalType": "string",
          "name": "_DOB",
          "type": "string"
        },
        {
          "internalType": "uint256",
          "name": "_phoneNumber",
          "type": "uint256"
        },
        {
          "internalType": "string",
          "name": "_PANcard",
          "type": "string"
        },
        {
          "internalType": "enum bank_application.AccountType",
          "name": "_account",
          "type": "uint8"
        }
      ],
      "name": "apply_for_account",
      "outputs": [],
      "stateMutability": "nonpayable",
      "type": "function"
    },
    {
      "inputs": [
        {
          "internalType": "uint256",
          "name": "_customerNumber",
          "type": "uint256"
        },
        {
          "internalType": "address payable",
          "name": "_accountAddress",
          "type": "address"
        }
      ],
      "name": "Approve_account",
      "outputs": [],
      "stateMutability": "nonpayable",
      "type": "function"
    },
    {
      "inputs": [
        {
          "internalType": "uint256",
          "name": "_customerNumber",
          "type": "uint256"
        }
      ],
      "name": "Denied_account",
      "outputs": [],
      "stateMutability": "nonpayable",
      "type": "function"
    },
    {
      "inputs": [
        {
          "internalType": "uint256",
          "name": "_customerNumber",
          "type": "uint256"
        }
      ],
      "name": "Closed_account",
      "outputs": [],
      "stateMutability": "nonpayable",
      "type": "function"
    },
    {
      "inputs": [
        {
          "internalType": "address payable",
          "name": "_accountAddress",
          "type": "address"
        }
      ],
      "name": "Transfer",
      "outputs": [],
      "stateMutability": "payable",
      "type": "function",
      "payable": true
    }
  ],
  "bytecode": "0x608060405234801561001057600080fd5b50336000806101000a81548173ffffffffffffffffffffffffffffffffffffffff021916908373ffffffffffffffffffffffffffffffffffffffff1602179055506112fa806100606000396000f3fe6080604052600436106100705760003560e01c8063c4fe218d1161004e578063c4fe218d146100e5578063da7a28091461010e578063f5ef9c8b14610137578063f768a70a1461016057610070565b80632d339b1e146100755780638da5cb5b146100915780639be65a99146100bc575b600080fd5b61008f600480360381019061008a9190610cfb565b6101a6565b005b34801561009d57600080fd5b506100a66101f6565b6040516100b39190610f37565b60405180910390f35b3480156100c857600080fd5b506100e360048036038101906100de9190610d4d565b61021a565b005b3480156100f157600080fd5b5061010c60048036038101906101079190610d24565b6103d3565b005b34801561011a57600080fd5b5061013560048036038101906101309190610d24565b610537565b005b34801561014357600080fd5b5061015e60048036038101906101599190610d89565b61069b565b005b34801561016c57600080fd5b5061018760048036038101906101829190610d24565b61087b565b60405161019d9a99989796959493929190610f52565b60405180910390f35b60003490508173ffffffffffffffffffffffffffffffffffffffff166108fc829081150290604051600060405180830381858888f193505050501580156101f1573d6000803e3d6000fd5b505050565b60008054906101000a900473ffffffffffffffffffffffffffffffffffffffff1681565b600082816003811115610256577f4e487b7100000000000000000000000000000000000000000000000000000000600052602160045260246000fd5b6001600083815260200190815260200160002060080160019054906101000a900460ff1660038111156102b2577f4e487b7100000000000000000000000000000000000000000000000000000000600052602160045260246000fd5b146102bc57600080fd5b60008054906101000a900473ffffffffffffffffffffffffffffffffffffffff1673ffffffffffffffffffffffffffffffffffffffff163373ffffffffffffffffffffffffffffffffffffffff161461031457600080fd5b826001600086815260200190815260200160002060010160006101000a81548173ffffffffffffffffffffffffffffffffffffffff021916908373ffffffffffffffffffffffffffffffffffffffff160217905550600180600086815260200190815260200160002060080160016101000a81548160ff021916908360038111156103c8577f4e487b7100000000000000000000000000000000000000000000000000000000600052602160045260246000fd5b021790555050505050565b60018181600381111561040f577f4e487b7100000000000000000000000000000000000000000000000000000000600052602160045260246000fd5b6001600083815260200190815260200160002060080160019054906101000a900460ff16600381111561046b577f4e487b7100000000000000000000000000000000000000000000000000000000600052602160045260246000fd5b1461047557600080fd5b60008054906101000a900473ffffffffffffffffffffffffffffffffffffffff1673ffffffffffffffffffffffffffffffffffffffff163373ffffffffffffffffffffffffffffffffffffffff16146104cd57600080fd5b60036001600085815260200190815260200160002060080160016101000a81548160ff0219169083600381111561052d577f4e487b7100000000000000000000000000000000000000000000000000000000600052602160045260246000fd5b0217905550505050565b600081816003811115610573577f4e487b7100000000000000000000000000000000000000000000000000000000600052602160045260246000fd5b6001600083815260200190815260200160002060080160019054906101000a900460ff1660038111156105cf577f4e487b7100000000000000000000000000000000000000000000000000000000600052602160045260246000fd5b146105d957600080fd5b60008054906101000a900473ffffffffffffffffffffffffffffffffffffffff1673ffffffffffffffffffffffffffffffffffffffff163373ffffffffffffffffffffffffffffffffffffffff161461063157600080fd5b60026001600085815260200190815260200160002060080160016101000a81548160ff02191690836003811115610691577f4e487b7100000000000000000000000000000000000000000000000000000000600052602160045260246000fd5b0217905550505050565b87600160008a81526020019081526020016000206000018190555086600160008a815260200190815260200160002060020190805190602001906106e0929190610bb1565b5085600160008a8152602001908152602001600020600301908051906020019061070b929190610bb1565b5084600160008a81526020019081526020016000206004019080519060200190610736929190610bb1565b5083600160008a81526020019081526020016000206005019080519060200190610761929190610bb1565b5082600160008a81526020019081526020016000206006018190555081600160008a815260200190815260200160002060070190805190602001906107a7929190610bb1565b5080600160008a815260200190815260200160002060080160006101000a81548160ff02191690836001811115610807577f4e487b7100000000000000000000000000000000000000000000000000000000600052602160045260246000fd5b02179055506000600160008a815260200190815260200160002060080160016101000a81548160ff0219169083600381111561086c577f4e487b7100000000000000000000000000000000000000000000000000000000600052602160045260246000fd5b02179055505050505050505050565b60016020528060005260406000206000915090508060000154908060010160009054906101000a900473ffffffffffffffffffffffffffffffffffffffff16908060020180546108ca9061115d565b80601f01602080910402602001604051908101604052809291908181526020018280546108f69061115d565b80156109435780601f1061091857610100808354040283529160200191610943565b820191906000526020600020905b81548152906001019060200180831161092657829003601f168201915b5050505050908060030180546109589061115d565b80601f01602080910402602001604051908101604052809291908181526020018280546109849061115d565b80156109d15780601f106109a6576101008083540402835291602001916109d1565b820191906000526020600020905b8154815290600101906020018083116109b457829003601f168201915b5050505050908060040180546109e69061115d565b80601f0160208091040260200160405190810160405280929190818152602001828054610a129061115d565b8015610a5f5780601f10610a3457610100808354040283529160200191610a5f565b820191906000526020600020905b815481529060010190602001808311610a4257829003601f168201915b505050505090806005018054610a749061115d565b80601f0160208091040260200160405190810160405280929190818152602001828054610aa09061115d565b8015610aed5780601f10610ac257610100808354040283529160200191610aed565b820191906000526020600020905b815481529060010190602001808311610ad057829003601f168201915b505050505090806006015490806007018054610b089061115d565b80601f0160208091040260200160405190810160405280929190818152602001828054610b349061115d565b8015610b815780601f10610b5657610100808354040283529160200191610b81565b820191906000526020600020905b815481529060010190602001808311610b6457829003601f168201915b5050505050908060080160009054906101000a900460ff16908060080160019054906101000a900460ff1690508a565b828054610bbd9061115d565b90600052602060002090601f016020900481019282610bdf5760008555610c26565b82601f10610bf857805160ff1916838001178555610c26565b82800160010185558215610c26579182015b82811115610c25578251825591602001919060010190610c0a565b5b509050610c339190610c37565b5090565b5b80821115610c50576000816000905550600101610c38565b5090565b6000610c67610c6284611036565b611011565b905082815260208101848484011115610c7f57600080fd5b610c8a84828561111b565b509392505050565b600081359050610ca181611286565b92915050565b600081359050610cb68161129d565b92915050565b600082601f830112610ccd57600080fd5b8135610cdd848260208601610c54565b91505092915050565b600081359050610cf5816112ad565b92915050565b600060208284031215610d0d57600080fd5b6000610d1b84828501610c92565b91505092915050565b600060208284031215610d3657600080fd5b6000610d4484828501610ce6565b91505092915050565b60008060408385031215610d6057600080fd5b6000610d6e85828601610ce6565b9250506020610d7f85828601610c92565b9150509250929050565b600080600080600080600080610100898b031215610da657600080fd5b6000610db48b828c01610ce6565b985050602089013567ffffffffffffffff811115610dd157600080fd5b610ddd8b828c01610cbc565b975050604089013567ffffffffffffffff811115610dfa57600080fd5b610e068b828c01610cbc565b965050606089013567ffffffffffffffff811115610e2357600080fd5b610e2f8b828c01610cbc565b955050608089013567ffffffffffffffff811115610e4c57600080fd5b610e588b828c01610cbc565b94505060a0610e698b828c01610ce6565b93505060c089013567ffffffffffffffff811115610e8657600080fd5b610e928b828c01610cbc565b92505060e0610ea38b828c01610ca7565b9150509295985092959890939650565b610ebc81611095565b82525050565b610ecb81611083565b82525050565b610eda816110f7565b82525050565b610ee981611109565b82525050565b6000610efa82611067565b610f048185611072565b9350610f1481856020860161112a565b610f1d8161124d565b840191505092915050565b610f31816110ed565b82525050565b6000602082019050610f4c6000830184610ec2565b92915050565b600061014082019050610f68600083018d610f28565b610f75602083018c610eb3565b8181036040830152610f87818b610eef565b90508181036060830152610f9b818a610eef565b90508181036080830152610faf8189610eef565b905081810360a0830152610fc38188610eef565b9050610fd260c0830187610f28565b81810360e0830152610fe48186610eef565b9050610ff4610100830185610ee0565b611002610120830184610ed1565b9b9a5050505050505050505050565b600061101b61102c565b9050611027828261118f565b919050565b6000604051905090565b600067ffffffffffffffff8211156110515761105061121e565b5b61105a8261124d565b9050602081019050919050565b600081519050919050565b600082825260208201905092915050565b600061108e826110cd565b9050919050565b60006110a0826110cd565b9050919050565b60008190506110b58261125e565b919050565b60008190506110c882611272565b919050565b600073ffffffffffffffffffffffffffffffffffffffff82169050919050565b6000819050919050565b6000611102826110a7565b9050919050565b6000611114826110ba565b9050919050565b82818337600083830152505050565b60005b8381101561114857808201518184015260208101905061112d565b83811115611157576000848401525b50505050565b6000600282049050600182168061117557607f821691505b60208210811415611189576111886111ef565b5b50919050565b6111988261124d565b810181811067ffffffffffffffff821117156111b7576111b661121e565b5b80604052505050565b7f4e487b7100000000000000000000000000000000000000000000000000000000600052602160045260246000fd5b7f4e487b7100000000000000000000000000000000000000000000000000000000600052602260045260246000fd5b7f4e487b7100000000000000000000000000000000000000000000000000000000600052604160045260246000fd5b6000601f19601f8301169050919050565b6004811061126f5761126e6111c0565b5b50565b60028110611283576112826111c0565b5b50565b61128f81611095565b811461129a57600080fd5b50565b600281106112aa57600080fd5b50565b6112b6816110ed565b81146112c157600080fd5b5056fea26469706673582212209e5a08ba13dac420e2bf2bef7d7e04e9b29e03770ed82a8c4d3522f6a66bdba564736f6c63430008010033",
  "immutableReferences": {},
  "source": "// SPDX-License-Identifier: MIT\npragma solidity 0.8.1;\n\ncontract bank_application {\n    \n     address public owner;\n    \nconstructor(){\n      owner=msg.sender;\n}    \n    \n  \nenum AccountType\n{\n    CurrentAccount, SavingsAccount\n}\n\nenum AccountStatus {\n        Application_sent, Account_Active,Account_Denied, Account_closed\n    }\n\nstruct Account_holder{\n    uint customerNumber;\n    address payable accountAddress;\n    string firstName;\n    string lastName;\n    string Address;\n    string DOB;\n    uint phoneNumber;\n    string PANcard;\n    AccountType account;\n    AccountStatus status;\n\n}\n\nmodifier Status(AccountStatus v,uint _customerNumber) {\n        require(Account_holder_details[_customerNumber].status == v);\n        _;\n    }\n\nmodifier onlyOwner(){\n    require(msg.sender == owner);\n    _;\n}\n\n\nmapping (uint=> Account_holder) public Account_holder_details;\n\nfunction apply_for_account(uint _customerNumber, string memory _firstName, string memory _lastName, \nstring memory _Address, string memory _DOB, uint _phoneNumber, string memory _PANcard,AccountType _account \n) public {\n    Account_holder_details[_customerNumber].customerNumber=_customerNumber;\n    Account_holder_details[_customerNumber].firstName=_firstName;\n    Account_holder_details[_customerNumber].lastName=_lastName;\n    Account_holder_details[_customerNumber].Address=_Address;\n    Account_holder_details[_customerNumber].DOB=_DOB;\n    Account_holder_details[_customerNumber].phoneNumber=_phoneNumber;\n    Account_holder_details[_customerNumber].PANcard=_PANcard;\n    Account_holder_details[_customerNumber].account=_account;\n    Account_holder_details[_customerNumber].status=AccountStatus.Application_sent;\n}\n\nfunction Approve_account(uint _customerNumber,address payable _accountAddress)public Status(AccountStatus.Application_sent,_customerNumber) onlyOwner{\n    Account_holder_details[_customerNumber].accountAddress=_accountAddress;\n    Account_holder_details[_customerNumber].status=AccountStatus.Account_Active;\n    \n}\n\nfunction Denied_account(uint _customerNumber ) public Status(AccountStatus.Application_sent,_customerNumber) onlyOwner {\n    Account_holder_details[_customerNumber].status=AccountStatus.Account_Denied;\n}\n\n\nfunction Closed_account(uint _customerNumber ) public Status(AccountStatus.Account_Active,_customerNumber) onlyOwner {\n    Account_holder_details[_customerNumber].status=AccountStatus.Account_closed;\n}\n\n\nfunction Transfer( address payable _accountAddress ) public payable{\n    uint256 amount = msg.value;\n    _accountAddress.transfer(amount);\n\n}\n\n\n\n}",
  "sourcePath": "C:/MyDrive/Solidity-codes/Solidity-In-Action/practice-solidity/bank_application/contracts/bank_application.sol",
  "compiler": {
    "name": "solc",
    "version": "0.8.1+commit.df193b15.Emscripten.clang"
  },
  "schemaVersion": "3.4.1",
  "updatedAt": "2021-09-22T09:43:40.866Z",
  "networkType": "ethereum",
  "devdoc": {
    "kind": "dev",
    "methods": {},
    "version": 1
  },
  "userdoc": {
    "kind": "user",
    "methods": {},
    "version": 1
  }
}