{
  "contractName": "covid",
  "abi": [
    {
      "inputs": [
        {
          "internalType": "uint256",
          "name": "",
          "type": "uint256"
        }
      ],
      "name": "vaccinationsDetails",
      "outputs": [
        {
          "internalType": "uint256",
          "name": "id",
          "type": "uint256"
        },
        {
          "components": [
            {
              "internalType": "uint256",
              "name": "id",
              "type": "uint256"
            },
            {
              "internalType": "string",
              "name": "Name",
              "type": "string"
            },
            {
              "internalType": "uint256",
              "name": "phoneNumber",
              "type": "uint256"
            },
            {
              "internalType": "string",
              "name": "Address",
              "type": "string"
            }
          ],
          "internalType": "struct covid.Person",
          "name": "patient",
          "type": "tuple"
        },
        {
          "internalType": "enum covid.VaccinationStatus",
          "name": "status",
          "type": "uint8"
        },
        {
          "internalType": "string",
          "name": "dateOfFirstVaccination",
          "type": "string"
        },
        {
          "internalType": "string",
          "name": "vaccineName",
          "type": "string"
        },
        {
          "internalType": "string",
          "name": "dateOfSecondVaccination",
          "type": "string"
        },
        {
          "components": [
            {
              "internalType": "uint256",
              "name": "id",
              "type": "uint256"
            },
            {
              "internalType": "uint256",
              "name": "Hospitalid",
              "type": "uint256"
            }
          ],
          "internalType": "struct covid.Hospital",
          "name": "hospital",
          "type": "tuple"
        },
        {
          "components": [
            {
              "internalType": "uint256",
              "name": "id",
              "type": "uint256"
            },
            {
              "internalType": "uint256",
              "name": "HealthCarePersonalNo",
              "type": "uint256"
            }
          ],
          "internalType": "struct covid.HealthCarePersonal",
          "name": "doctor",
          "type": "tuple"
        }
      ],
      "stateMutability": "view",
      "type": "function",
      "constant": true
    },
    {
      "inputs": [
        {
          "internalType": "uint256",
          "name": "_id",
          "type": "uint256"
        },
        {
          "internalType": "string",
          "name": "_Name",
          "type": "string"
        },
        {
          "internalType": "uint256",
          "name": "_phoneNumber",
          "type": "uint256"
        },
        {
          "internalType": "string",
          "name": "_Address",
          "type": "string"
        }
      ],
      "name": "Registration",
      "outputs": [],
      "stateMutability": "nonpayable",
      "type": "function"
    },
    {
      "inputs": [
        {
          "internalType": "uint256",
          "name": "_id",
          "type": "uint256"
        },
        {
          "internalType": "string",
          "name": "_dateOfFirstVaccination",
          "type": "string"
        },
        {
          "internalType": "string",
          "name": "_vaccineName",
          "type": "string"
        },
        {
          "internalType": "uint256",
          "name": "_Hospitalid",
          "type": "uint256"
        },
        {
          "internalType": "uint256",
          "name": "_HealthCarePersonalNo",
          "type": "uint256"
        }
      ],
      "name": "FirstVaccine",
      "outputs": [],
      "stateMutability": "nonpayable",
      "type": "function"
    },
    {
      "inputs": [
        {
          "internalType": "uint256",
          "name": "_id",
          "type": "uint256"
        },
        {
          "internalType": "string",
          "name": "_dateOfSecondVaccination",
          "type": "string"
        }
      ],
      "name": "SecondVaccine",
      "outputs": [],
      "stateMutability": "nonpayable",
      "type": "function"
    }
  ],
  "bytecode": "0x608060405234801561001057600080fd5b50610f7c806100206000396000f3fe608060405234801561001057600080fd5b506004361061004c5760003560e01c80632353bd621461005157806368e90b7a14610088578063bfcdab8f146100a4578063c9dfd07c146100c0575b600080fd5b61006b6004803603810190610066919061096d565b6100dc565b60405161007f989796959493929190610c8b565b60405180910390f35b6100a2600480360381019061009d9190610a91565b610447565b005b6100be60048036038101906100b991906109ea565b610542565b005b6100da60048036038101906100d59190610996565b610718565b005b6000602052806000526040600020600091509050806000015490806001016040518060800160405290816000820154815260200160018201805461011f90610e1a565b80601f016020809104026020016040519081016040528092919081815260200182805461014b90610e1a565b80156101985780601f1061016d57610100808354040283529160200191610198565b820191906000526020600020905b81548152906001019060200180831161017b57829003601f168201915b50505050508152602001600282015481526020016003820180546101bb90610e1a565b80601f01602080910402602001604051908101604052809291908181526020018280546101e790610e1a565b80156102345780601f1061020957610100808354040283529160200191610234565b820191906000526020600020905b81548152906001019060200180831161021757829003601f168201915b505050505081525050908060050160009054906101000a900460ff169080600601805461026090610e1a565b80601f016020809104026020016040519081016040528092919081815260200182805461028c90610e1a565b80156102d95780601f106102ae576101008083540402835291602001916102d9565b820191906000526020600020905b8154815290600101906020018083116102bc57829003601f168201915b5050505050908060070180546102ee90610e1a565b80601f016020809104026020016040519081016040528092919081815260200182805461031a90610e1a565b80156103675780601f1061033c57610100808354040283529160200191610367565b820191906000526020600020905b81548152906001019060200180831161034a57829003601f168201915b50505050509080600801805461037c90610e1a565b80601f01602080910402602001604051908101604052809291908181526020018280546103a890610e1a565b80156103f55780601f106103ca576101008083540402835291602001916103f5565b820191906000526020600020905b8154815290600101906020018083116103d857829003601f168201915b50505050509080600901604051806040016040529081600082015481526020016001820154815250509080600b0160405180604001604052908160008201548152602001600182015481525050905088565b836000808681526020019081526020016000206000018190555082600080868152602001908152602001600020600101600101908051906020019061048d92919061084d565b5081600080868152602001908152602001600020600101600201819055508060008086815260200190815260200160002060010160030190805190602001906104d792919061084d565b50600080600086815260200190815260200160002060050160006101000a81548160ff02191690836002811115610537577f4e487b7100000000000000000000000000000000000000000000000000000000600052602160045260246000fd5b021790555050505050565b60008581600281111561057e577f4e487b7100000000000000000000000000000000000000000000000000000000600052602160045260246000fd5b60008083815260200190815260200160002060050160009054906101000a900460ff1660028111156105d9577f4e487b7100000000000000000000000000000000000000000000000000000000600052602160045260246000fd5b146105e357600080fd5b600160008089815260200190815260200160002060050160006101000a81548160ff02191690836002811115610642577f4e487b7100000000000000000000000000000000000000000000000000000000600052602160045260246000fd5b021790555085600080898152602001908152602001600020600601908051906020019061067092919061084d565b5084600080898152602001908152602001600020600701908051906020019061069a92919061084d565b508660008089815260200190815260200160002060090160000181905550836000808981526020019081526020016000206009016001018190555086600080898152602001908152602001600020600b016000018190555082600080898152602001908152602001600020600b016001018190555050505050505050565b600182816002811115610754577f4e487b7100000000000000000000000000000000000000000000000000000000600052602160045260246000fd5b60008083815260200190815260200160002060050160009054906101000a900460ff1660028111156107af577f4e487b7100000000000000000000000000000000000000000000000000000000600052602160045260246000fd5b146107b957600080fd5b600260008086815260200190815260200160002060050160006101000a81548160ff02191690836002811115610818577f4e487b7100000000000000000000000000000000000000000000000000000000600052602160045260246000fd5b021790555082600080868152602001908152602001600020600801908051906020019061084692919061084d565b5050505050565b82805461085990610e1a565b90600052602060002090601f01602090048101928261087b57600085556108c2565b82601f1061089457805160ff19168380011785556108c2565b828001600101855582156108c2579182015b828111156108c15782518255916020019190600101906108a6565b5b5090506108cf91906108d3565b5090565b5b808211156108ec5760008160009055506001016108d4565b5090565b60006109036108fe84610d4b565b610d26565b90508281526020810184848401111561091b57600080fd5b610926848285610dd8565b509392505050565b600082601f83011261093f57600080fd5b813561094f8482602086016108f0565b91505092915050565b60008135905061096781610f2f565b92915050565b60006020828403121561097f57600080fd5b600061098d84828501610958565b91505092915050565b600080604083850312156109a957600080fd5b60006109b785828601610958565b925050602083013567ffffffffffffffff8111156109d457600080fd5b6109e08582860161092e565b9150509250929050565b600080600080600060a08688031215610a0257600080fd5b6000610a1088828901610958565b955050602086013567ffffffffffffffff811115610a2d57600080fd5b610a398882890161092e565b945050604086013567ffffffffffffffff811115610a5657600080fd5b610a628882890161092e565b9350506060610a7388828901610958565b9250506080610a8488828901610958565b9150509295509295909350565b60008060008060808587031215610aa757600080fd5b6000610ab587828801610958565b945050602085013567ffffffffffffffff811115610ad257600080fd5b610ade8782880161092e565b9350506040610aef87828801610958565b925050606085013567ffffffffffffffff811115610b0c57600080fd5b610b188782880161092e565b91505092959194509250565b610b2d81610dc6565b82525050565b6000610b3e82610d7c565b610b488185610d87565b9350610b58818560208601610de7565b610b6181610f0a565b840191505092915050565b6000610b7782610d7c565b610b818185610d98565b9350610b91818560208601610de7565b610b9a81610f0a565b840191505092915050565b604082016000820151610bbb6000850182610c6d565b506020820151610bce6020850182610c6d565b50505050565b604082016000820151610bea6000850182610c6d565b506020820151610bfd6020850182610c6d565b50505050565b6000608083016000830151610c1b6000860182610c6d565b5060208301518482036020860152610c338282610b33565b9150506040830151610c486040860182610c6d565b5060608301518482036060860152610c608282610b33565b9150508091505092915050565b610c7681610dbc565b82525050565b610c8581610dbc565b82525050565b600061014082019050610ca1600083018b610c7c565b8181036020830152610cb3818a610c03565b9050610cc26040830189610b24565b8181036060830152610cd48188610b6c565b90508181036080830152610ce88187610b6c565b905081810360a0830152610cfc8186610b6c565b9050610d0b60c0830185610bd4565b610d19610100830184610ba5565b9998505050505050505050565b6000610d30610d41565b9050610d3c8282610e4c565b919050565b6000604051905090565b600067ffffffffffffffff821115610d6657610d65610edb565b5b610d6f82610f0a565b9050602081019050919050565b600081519050919050565b600082825260208201905092915050565b600082825260208201905092915050565b6000819050610db782610f1b565b919050565b6000819050919050565b6000610dd182610da9565b9050919050565b82818337600083830152505050565b60005b83811015610e05578082015181840152602081019050610dea565b83811115610e14576000848401525b50505050565b60006002820490506001821680610e3257607f821691505b60208210811415610e4657610e45610eac565b5b50919050565b610e5582610f0a565b810181811067ffffffffffffffff82111715610e7457610e73610edb565b5b80604052505050565b7f4e487b7100000000000000000000000000000000000000000000000000000000600052602160045260246000fd5b7f4e487b7100000000000000000000000000000000000000000000000000000000600052602260045260246000fd5b7f4e487b7100000000000000000000000000000000000000000000000000000000600052604160045260246000fd5b6000601f19601f8301169050919050565b60038110610f2c57610f2b610e7d565b5b50565b610f3881610dbc565b8114610f4357600080fd5b5056fea264697066735822122019deba03161ab8571284c7af06912559eaefe4cd498ff7ae601df7a585631d7464736f6c63430008010033",
  "immutableReferences": {},
  "source": "// SPDX-License-Identifier: MIT\npragma solidity 0.8.1;\n\ncontract covid {\n\n\n    enum VaccinationStatus {\n        Not_Vaccinated, Partially_Vaccinated, Fully_Vaccinated\n    }\n    \n    struct Person{\n        uint id;\n        string Name;\n        uint phoneNumber;\n        string Address;\n    } \n\n    struct Hospital{\n        uint id;\n        uint Hospitalid;\n    }\n\n    struct HealthCarePersonal{\n        uint id;\n        uint HealthCarePersonalNo;\n    }\n\n    struct Vaccination{\n        uint id;\n        Person patient;\n        VaccinationStatus status;\n        string dateOfFirstVaccination;\n        string vaccineName;\n        string dateOfSecondVaccination;\n        Hospital hospital;\n        HealthCarePersonal doctor;\n\n    }\n\n    mapping(uint => Vaccination) public vaccinationsDetails;\n\n    modifier Status(VaccinationStatus v,uint _id) {\n        require(vaccinationsDetails[_id].status == v);\n        _;\n    }\n\n    function Registration(uint _id, string memory _Name, uint _phoneNumber, string memory _Address)public{\n       vaccinationsDetails[_id].id = _id;\n       vaccinationsDetails[_id].patient.Name = _Name;\n       vaccinationsDetails[_id].patient.phoneNumber = _phoneNumber;\n       vaccinationsDetails[_id].patient.Address = _Address;\n       vaccinationsDetails[_id].status = VaccinationStatus.Not_Vaccinated;\n\n    }\n\n\n    function FirstVaccine(uint _id, string memory _dateOfFirstVaccination, string memory _vaccineName, uint _Hospitalid,\n    uint _HealthCarePersonalNo) public Status(VaccinationStatus.Not_Vaccinated,_id) {\n       vaccinationsDetails[_id].status = VaccinationStatus.Partially_Vaccinated;\n       vaccinationsDetails[_id].dateOfFirstVaccination = _dateOfFirstVaccination;\n       vaccinationsDetails[_id].vaccineName = _vaccineName;\n       vaccinationsDetails[_id].hospital.id = _id;\n       vaccinationsDetails[_id].hospital.Hospitalid = _Hospitalid;\n       vaccinationsDetails[_id].doctor.id = _id;\n       vaccinationsDetails[_id].doctor.HealthCarePersonalNo = _HealthCarePersonalNo;\n    }\n\n\n    function SecondVaccine(uint _id, string memory _dateOfSecondVaccination)public Status(VaccinationStatus.Partially_Vaccinated,_id) {\n    vaccinationsDetails[_id].status =VaccinationStatus.Fully_Vaccinated;\n    vaccinationsDetails[_id].dateOfSecondVaccination = _dateOfSecondVaccination;\n    \n    }\n\n\n}",
  "sourcePath": "C:/MyDrive/Solidity-codes/Solidity-In-Action/practice-solidity/covid_app/contracts/covid.sol",
  "compiler": {
    "name": "solc",
    "version": "0.8.1+commit.df193b15.Emscripten.clang"
  },
  "schemaVersion": "3.4.1",
  "updatedAt": "2021-09-21T19:35:17.112Z",
  "networkType": "ethereum",
  "devdoc": {
    "kind": "dev",
    "methods": {},
    "version": 1
  },
  "userdoc": {
    "kind": "user",
    "methods": {},
    "version": 1
  }
}