{
  "contractName": "attendance",
  "abi": [
    {
      "inputs": [
        {
          "internalType": "uint256",
          "name": "",
          "type": "uint256"
        },
        {
          "internalType": "uint256",
          "name": "",
          "type": "uint256"
        }
      ],
      "name": "attendances",
      "outputs": [
        {
          "internalType": "string",
          "name": "",
          "type": "string"
        }
      ],
      "stateMutability": "view",
      "type": "function",
      "constant": true
    },
    {
      "inputs": [
        {
          "internalType": "uint256",
          "name": "i",
          "type": "uint256"
        },
        {
          "internalType": "uint256",
          "name": "j",
          "type": "uint256"
        },
        {
          "internalType": "string",
          "name": "k",
          "type": "string"
        }
      ],
      "name": "setAttendance",
      "outputs": [],
      "stateMutability": "nonpayable",
      "type": "function"
    },
    {
      "inputs": [],
      "name": "getArray",
      "outputs": [
        {
          "internalType": "string[3][3]",
          "name": "",
          "type": "string[3][3]"
        }
      ],
      "stateMutability": "view",
      "type": "function",
      "constant": true
    }
  ],
  "bytecode": "0x6080604052604051806060016040528060405180606001604052806040518060400160405280600181526020017f610000000000000000000000000000000000000000000000000000000000000081525081526020016040518060400160405280600181526020017f610000000000000000000000000000000000000000000000000000000000000081525081526020016040518060400160405280600181526020017f6100000000000000000000000000000000000000000000000000000000000000815250815250815260200160405180606001604052806040518060400160405280600181526020017f610000000000000000000000000000000000000000000000000000000000000081525081526020016040518060400160405280600181526020017f610000000000000000000000000000000000000000000000000000000000000081525081526020016040518060400160405280600181526020017f6100000000000000000000000000000000000000000000000000000000000000815250815250815260200160405180606001604052806040518060400160405280600181526020017f610000000000000000000000000000000000000000000000000000000000000081525081526020016040518060400160405280600181526020017f610000000000000000000000000000000000000000000000000000000000000081525081526020016040518060400160405280600181526020017f610000000000000000000000000000000000000000000000000000000000000081525081525081525060009060036200025c92919062000271565b503480156200026a57600080fd5b5062000506565b82600380028101928215620002b5579160200282015b82811115620002b457825182906003620002a3929190620002c8565b509160200191906003019062000287565b5b509050620002c4919062000322565b5090565b82600381019282156200030f579160200282015b828111156200030e578251829080519060200190620002fd9291906200034a565b5091602001919060010190620002dc565b5b5090506200031e9190620003db565b5090565b5b808211156200034657600081816200033c919062000403565b5060030162000323565b5090565b8280546200035890620004a1565b90600052602060002090601f0160209004810192826200037c5760008555620003c8565b82601f106200039757805160ff1916838001178555620003c8565b82800160010185558215620003c8579182015b82811115620003c7578251825591602001919060010190620003aa565b5b509050620003d791906200043c565b5090565b5b80821115620003ff5760008181620003f591906200045b565b50600101620003dc565b5090565b50600081816200041491906200045b565b50600101600081816200042891906200045b565b5060010160006200043a91906200045b565b565b5b80821115620004575760008160009055506001016200043d565b5090565b5080546200046990620004a1565b6000825580601f106200047d57506200049e565b601f0160209004906000526020600020908101906200049d91906200043c565b5b50565b60006002820490506001821680620004ba57607f821691505b60208210811415620004d157620004d0620004d7565b5b50919050565b7f4e487b7100000000000000000000000000000000000000000000000000000000600052602260045260246000fd5b61092380620005166000396000f3fe608060405234801561001057600080fd5b50600436106100415760003560e01c80636544236714610046578063ad8d35b214610062578063d504ea1d14610092575b600080fd5b610060600480360381019061005b91906104ac565b6100b0565b005b61007c60048036038101906100779190610470565b610141565b60405161008991906106b9565b60405180910390f35b61009a6101f7565b6040516100a79190610697565b60405180910390f35b80600084600381106100eb577f4e487b7100000000000000000000000000000000000000000000000000000000600052603260045260246000fd5b600302018360038110610127577f4e487b7100000000000000000000000000000000000000000000000000000000600052603260045260246000fd5b01908051906020019061013b9291906102fc565b50505050565b6000826003811061015157600080fd5b60030201816003811061016357600080fd5b0160009150915050805461017690610804565b80601f01602080910402602001604051908101604052809291908181526020018280546101a290610804565b80156101ef5780601f106101c4576101008083540402835291602001916101ef565b820191906000526020600020905b8154815290600101906020018083116101d257829003601f168201915b505050505081565b6101ff610382565b6000600380602002604051908101604052809291906000905b828210156102f357838260030201600380602002604051908101604052809291906000905b828210156102e057838201805461025390610804565b80601f016020809104026020016040519081016040528092919081815260200182805461027f90610804565b80156102cc5780601f106102a1576101008083540402835291602001916102cc565b820191906000526020600020905b8154815290600101906020018083116102af57829003601f168201915b50505050508152602001906001019061023d565b5050505081526020019060010190610218565b50505050905090565b82805461030890610804565b90600052602060002090601f01602090048101928261032a5760008555610371565b82601f1061034357805160ff1916838001178555610371565b82800160010185558215610371579182015b82811115610370578251825591602001919060010190610355565b5b50905061037e91906103af565b5090565b60405180606001604052806003905b6103996103cc565b8152602001906001900390816103915790505090565b5b808211156103c85760008160009055506001016103b0565b5090565b60405180606001604052806003905b60608152602001906001900390816103db5790505090565b600061040661040184610700565b6106db565b90508281526020810184848401111561041e57600080fd5b6104298482856107c2565b509392505050565b600082601f83011261044257600080fd5b81356104528482602086016103f3565b91505092915050565b60008135905061046a816108d6565b92915050565b6000806040838503121561048357600080fd5b60006104918582860161045b565b92505060206104a28582860161045b565b9150509250929050565b6000806000606084860312156104c157600080fd5b60006104cf8682870161045b565b93505060206104e08682870161045b565b925050604084013567ffffffffffffffff8111156104fd57600080fd5b61050986828701610431565b9150509250925092565b600061051f83836105b0565b905092915050565b60006105338383610625565b905092915050565b600061054682610745565b6105508185610780565b93508360208202850161056285610731565b8060005b8581101561059e578484038952815161057f8582610513565b945061058a83610766565b925060208a01995050600181019050610566565b50829750879550505050505092915050565b60006105bb82610750565b6105c5818561078b565b9350836020820285016105d78561073b565b8060005b8581101561061357848403895281516105f48582610527565b94506105ff83610773565b925060208a019950506001810190506105db565b50829750879550505050505092915050565b60006106308261075b565b61063a8185610796565b935061064a8185602086016107d1565b610653816108c5565b840191505092915050565b60006106698261075b565b61067381856107a7565b93506106838185602086016107d1565b61068c816108c5565b840191505092915050565b600060208201905081810360008301526106b1818461053b565b905092915050565b600060208201905081810360008301526106d3818461065e565b905092915050565b60006106e56106f6565b90506106f18282610836565b919050565b6000604051905090565b600067ffffffffffffffff82111561071b5761071a610896565b5b610724826108c5565b9050602081019050919050565b6000819050919050565b6000819050919050565b600060039050919050565b600060039050919050565b600081519050919050565b6000602082019050919050565b6000602082019050919050565b600081905092915050565b600081905092915050565b600082825260208201905092915050565b600082825260208201905092915050565b6000819050919050565b82818337600083830152505050565b60005b838110156107ef5780820151818401526020810190506107d4565b838111156107fe576000848401525b50505050565b6000600282049050600182168061081c57607f821691505b602082108114156108305761082f610867565b5b50919050565b61083f826108c5565b810181811067ffffffffffffffff8211171561085e5761085d610896565b5b80604052505050565b7f4e487b7100000000000000000000000000000000000000000000000000000000600052602260045260246000fd5b7f4e487b7100000000000000000000000000000000000000000000000000000000600052604160045260246000fd5b6000601f19601f8301169050919050565b6108df816107b8565b81146108ea57600080fd5b5056fea2646970667358221220863c03d788e172c7be6916691b8f6f6d401ad25a8700ed4a017f0d80569e0a4164736f6c63430008010033",
  "immutableReferences": {},
  "source": "\n // SPDX-License-Identifier: MIT\npragma solidity 0.8.1;\n\ncontract attendance {\n\n string[3][3] public attendances=[['a','a','a'], ['a','a','a'], ['a','a','a']];\n\n function setAttendance(uint i, uint j, string memory k) public {\n  attendances [i][j]=k;\n\n }\n\n function getArray() public view returns(string[3][3] memory) {\n        return attendances;\n    }\n\n\n}\n\n\n\n",
  "sourcePath": "C:/MyDrive/Solidity-codes/Solidity-In-Action/practice-solidity/attendance_marking/contracts/attendance.sol",
  "compiler": {
    "name": "solc",
    "version": "0.8.1+commit.df193b15.Emscripten.clang"
  },
  "schemaVersion": "3.4.1",
  "updatedAt": "2021-09-22T11:16:33.132Z",
  "networkType": "ethereum",
  "devdoc": {
    "kind": "dev",
    "methods": {},
    "version": 1
  },
  "userdoc": {
    "kind": "user",
    "methods": {},
    "version": 1
  }
}