{
  "contractName": "newBook",
  "abi": [
    {
      "inputs": [
        {
          "internalType": "uint256",
          "name": "",
          "type": "uint256"
        }
      ],
      "name": "BookDetails",
      "outputs": [
        {
          "internalType": "uint256",
          "name": "id",
          "type": "uint256"
        },
        {
          "internalType": "string",
          "name": "title",
          "type": "string"
        },
        {
          "internalType": "string",
          "name": "author",
          "type": "string"
        },
        {
          "components": [
            {
              "internalType": "uint256",
              "name": "id",
              "type": "uint256"
            },
            {
              "internalType": "address",
              "name": "from",
              "type": "address"
            },
            {
              "internalType": "uint256",
              "name": "amount",
              "type": "uint256"
            },
            {
              "components": [
                {
                  "internalType": "string",
                  "name": "name",
                  "type": "string"
                },
                {
                  "internalType": "string",
                  "name": "IFSC",
                  "type": "string"
                }
              ],
              "internalType": "struct newBook.Bank",
              "name": "bankDetails",
              "type": "tuple"
            }
          ],
          "internalType": "struct newBook.Payment",
          "name": "paymentDetails",
          "type": "tuple"
        }
      ],
      "stateMutability": "view",
      "type": "function"
    },
    {
      "inputs": [
        {
          "internalType": "uint256",
          "name": "_id",
          "type": "uint256"
        },
        {
          "internalType": "string",
          "name": "_title",
          "type": "string"
        },
        {
          "internalType": "string",
          "name": "_author",
          "type": "string"
        },
        {
          "internalType": "uint256",
          "name": "_amount",
          "type": "uint256"
        },
        {
          "internalType": "string",
          "name": "_bankName",
          "type": "string"
        },
        {
          "internalType": "string",
          "name": "_IFSC",
          "type": "string"
        }
      ],
      "name": "newBookEntry",
      "outputs": [],
      "stateMutability": "nonpayable",
      "type": "function"
    },
    {
      "inputs": [
        {
          "internalType": "uint256",
          "name": "_id",
          "type": "uint256"
        },
        {
          "internalType": "string",
          "name": "_author",
          "type": "string"
        },
        {
          "internalType": "string",
          "name": "_bankName",
          "type": "string"
        }
      ],
      "name": "addAnotherBook",
      "outputs": [],
      "stateMutability": "nonpayable",
      "type": "function"
    }
  ],
  "bytecode": "0x608060405234801561001057600080fd5b50610c4c806100206000396000f3fe608060405234801561001057600080fd5b50600436106100415760003560e01c80633989f516146100465780639b4381aa14610079578063a45c0c8114610095575b600080fd5b610060600480360381019061005b9190610721565b6100b1565b60405161007094939291906109f8565b60405180910390f35b610093600480360381019061008e91906107c9565b61039d565b005b6100af60048036038101906100aa919061074a565b610514565b005b60006020528060005260406000206000915090508060000154908060010180546100da90610b5e565b80601f016020809104026020016040519081016040528092919081815260200182805461010690610b5e565b80156101535780601f1061012857610100808354040283529160200191610153565b820191906000526020600020905b81548152906001019060200180831161013657829003601f168201915b50505050509080600201805461016890610b5e565b80601f016020809104026020016040519081016040528092919081815260200182805461019490610b5e565b80156101e15780601f106101b6576101008083540402835291602001916101e1565b820191906000526020600020905b8154815290600101906020018083116101c457829003601f168201915b50505050509080600301604051806080016040529081600082015481526020016001820160009054906101000a900473ffffffffffffffffffffffffffffffffffffffff1673ffffffffffffffffffffffffffffffffffffffff1673ffffffffffffffffffffffffffffffffffffffff168152602001600282015481526020016003820160405180604001604052908160008201805461028090610b5e565b80601f01602080910402602001604051908101604052809291908181526020018280546102ac90610b5e565b80156102f95780601f106102ce576101008083540402835291602001916102f9565b820191906000526020600020905b8154815290600101906020018083116102dc57829003601f168201915b5050505050815260200160018201805461031290610b5e565b80601f016020809104026020016040519081016040528092919081815260200182805461033e90610b5e565b801561038b5780601f106103605761010080835404028352916020019161038b565b820191906000526020600020905b81548152906001019060200180831161036e57829003601f168201915b50505050508152505081525050905084565b604051806080016040528087815260200186815260200185815260200160405180608001604052808981526020013373ffffffffffffffffffffffffffffffffffffffff168152602001868152602001604051806040016040528087815260200186815250815250815250600080888152602001908152602001600020600082015181600001556020820151816001019080519060200190610440929190610601565b50604082015181600201908051906020019061045d929190610601565b506060820151816003016000820151816000015560208201518160010160006101000a81548173ffffffffffffffffffffffffffffffffffffffff021916908373ffffffffffffffffffffffffffffffffffffffff1602179055506040820151816002015560608201518160030160008201518160000190805190602001906104e7929190610601565b506020820151816001019080519060200190610504929190610601565b5050505050905050505050505050565b8260008085815260200190815260200160002060000181905550816000808581526020019081526020016000206002019080519060200190610557929190610601565b5082600080858152602001908152602001600020600301600001819055503360008085815260200190815260200160002060030160010160006101000a81548173ffffffffffffffffffffffffffffffffffffffff021916908373ffffffffffffffffffffffffffffffffffffffff1602179055508060008085815260200190815260200160002060030160030160000190805190602001906105fb929190610601565b50505050565b82805461060d90610b5e565b90600052602060002090601f01602090048101928261062f5760008555610676565b82601f1061064857805160ff1916838001178555610676565b82800160010185558215610676579182015b8281111561067557825182559160200191906001019061065a565b5b5090506106839190610687565b5090565b5b808211156106a0576000816000905550600101610688565b5090565b60006106b76106b284610a83565b610a52565b9050828152602081018484840111156106cf57600080fd5b6106da848285610b1c565b509392505050565b600082601f8301126106f357600080fd5b81356107038482602086016106a4565b91505092915050565b60008135905061071b81610bff565b92915050565b60006020828403121561073357600080fd5b60006107418482850161070c565b91505092915050565b60008060006060848603121561075f57600080fd5b600061076d8682870161070c565b935050602084013567ffffffffffffffff81111561078a57600080fd5b610796868287016106e2565b925050604084013567ffffffffffffffff8111156107b357600080fd5b6107bf868287016106e2565b9150509250925092565b60008060008060008060c087890312156107e257600080fd5b60006107f089828a0161070c565b965050602087013567ffffffffffffffff81111561080d57600080fd5b61081989828a016106e2565b955050604087013567ffffffffffffffff81111561083657600080fd5b61084289828a016106e2565b945050606061085389828a0161070c565b935050608087013567ffffffffffffffff81111561087057600080fd5b61087c89828a016106e2565b92505060a087013567ffffffffffffffff81111561089957600080fd5b6108a589828a016106e2565b9150509295509295509295565b6108bb81610ae0565b82525050565b60006108cc82610ab3565b6108d68185610abe565b93506108e6818560208601610b2b565b6108ef81610bee565b840191505092915050565b600061090582610ab3565b61090f8185610acf565b935061091f818560208601610b2b565b61092881610bee565b840191505092915050565b6000604083016000830151848203600086015261095082826108c1565b9150506020830151848203602086015261096a82826108c1565b9150508091505092915050565b600060808301600083015161098f60008601826109da565b5060208301516109a260208601826108b2565b5060408301516109b560408601826109da565b50606083015184820360608601526109cd8282610933565b9150508091505092915050565b6109e381610b12565b82525050565b6109f281610b12565b82525050565b6000608082019050610a0d60008301876109e9565b8181036020830152610a1f81866108fa565b90508181036040830152610a3381856108fa565b90508181036060830152610a478184610977565b905095945050505050565b6000604051905081810181811067ffffffffffffffff82111715610a7957610a78610bbf565b5b8060405250919050565b600067ffffffffffffffff821115610a9e57610a9d610bbf565b5b601f19601f8301169050602081019050919050565b600081519050919050565b600082825260208201905092915050565b600082825260208201905092915050565b6000610aeb82610af2565b9050919050565b600073ffffffffffffffffffffffffffffffffffffffff82169050919050565b6000819050919050565b82818337600083830152505050565b60005b83811015610b49578082015181840152602081019050610b2e565b83811115610b58576000848401525b50505050565b60006002820490506001821680610b7657607f821691505b60208210811415610b8a57610b89610b90565b5b50919050565b7f4e487b7100000000000000000000000000000000000000000000000000000000600052602260045260246000fd5b7f4e487b7100000000000000000000000000000000000000000000000000000000600052604160045260246000fd5b6000601f19601f8301169050919050565b610c0881610b12565b8114610c1357600080fd5b5056fea26469706673582212200ecada5fbc6452b5db85a16ddbe2014eeb377e3c9562c40509ab5af596bc2dd664736f6c63430008000033",
  "immutableReferences": {},
  "source": "// SPDX-License-Identifier: MIT\r\npragma solidity 0.8.0;\r\n\r\ncontract newBook{\r\n   struct Book { \r\n        uint id;\r\n        string title;\r\n        string author;\r\n        Payment paymentDetails;\r\n   }\r\n   \r\n   struct Payment {\r\n       uint id;\r\n       address from;\r\n       uint amount;\r\n       Bank bankDetails;\r\n   }\r\n   \r\n   struct Bank {\r\n       string name;\r\n       string IFSC;\r\n   }\r\n   \r\n    mapping(uint => Book) public BookDetails;\r\n    \r\n    function newBookEntry(uint _id, string memory _title, string memory _author, uint _amount,\r\n                    string memory _bankName, string memory _IFSC) public {\r\n        BookDetails[_id] = Book(_id, _title, _author, Payment(_id, msg.sender, _amount,Bank(_bankName, _IFSC)));\r\n    }\r\n    \r\n    function addAnotherBook(uint _id, string memory _author, string memory _bankName) public {\r\n        BookDetails[_id].id = _id;\r\n        BookDetails[_id].author = _author;\r\n        BookDetails[_id].paymentDetails.id = _id;\r\n        BookDetails[_id].paymentDetails.from = msg.sender;\r\n        BookDetails[_id].paymentDetails.bankDetails.name = _bankName;\r\n    }\r\n    \r\n}",
  "sourcePath": "C:/MyDrive/Solidity-codes/ww-solidity/bookDetails/contracts/newBook.sol",
  "compiler": {
    "name": "solc",
    "version": "0.8.0+commit.c7dfd78e.Emscripten.clang"
  },
  "schemaVersion": "3.4.1",
  "updatedAt": "2021-09-09T12:49:35.150Z",
  "devdoc": {
    "kind": "dev",
    "methods": {},
    "version": 1
  },
  "userdoc": {
    "kind": "user",
    "methods": {},
    "version": 1
  }
}