{
  "contractName": "recursive",
  "abi": [
    {
      "inputs": [
        {
          "internalType": "uint256",
          "name": "y",
          "type": "uint256"
        }
      ],
      "name": "factorial",
      "outputs": [
        {
          "internalType": "uint256",
          "name": "",
          "type": "uint256"
        }
      ],
      "stateMutability": "view",
      "type": "function",
      "constant": true
    }
  ],
  "bytecode": "0x608060405234801561001057600080fd5b50610217806100206000396000f3fe608060405234801561001057600080fd5b506004361061002b5760003560e01c80638371483414610030575b600080fd5b61004a600480360381019061004591906100b0565b610060565b60405161005791906100e8565b60405180910390f35b6000600182141561007357819050610096565b610088600183610083919061015d565b610060565b826100939190610103565b90505b919050565b6000813590506100aa816101ca565b92915050565b6000602082840312156100c257600080fd5b60006100d08482850161009b565b91505092915050565b6100e281610191565b82525050565b60006020820190506100fd60008301846100d9565b92915050565b600061010e82610191565b915061011983610191565b9250817fffffffffffffffffffffffffffffffffffffffffffffffffffffffffffffffff04831182151516156101525761015161019b565b5b828202905092915050565b600061016882610191565b915061017383610191565b9250828210156101865761018561019b565b5b828203905092915050565b6000819050919050565b7f4e487b7100000000000000000000000000000000000000000000000000000000600052601160045260246000fd5b6101d381610191565b81146101de57600080fd5b5056fea264697066735822122087957dbd7e7dc28b44e2565763cd7d4151c23c85927c838a318b7c636aad8d1664736f6c63430008010033",
  "immutableReferences": {},
  "source": "// SPDX-License-Identifier: MIT\npragma solidity 0.8.1;\n\ncontract recursive {\n  \n   function factorial(uint y)public view returns(uint){\n        if (y == 1)\n            return y;\n        return y * factorial(y-1);\n        \n    }\n\n\n}\n\n\n",
  "sourcePath": "C:/MyDrive/Solidity-codes/Solidity-In-Action/practice-solidity/factorial_using_recursive_function/contracts/recursive.sol",
  "compiler": {
    "name": "solc",
    "version": "0.8.1+commit.df193b15.Emscripten.clang"
  },
  "schemaVersion": "3.4.1",
  "updatedAt": "2021-09-21T13:47:33.124Z",
  "networkType": "ethereum",
  "devdoc": {
    "kind": "dev",
    "methods": {},
    "version": 1
  },
  "userdoc": {
    "kind": "user",
    "methods": {},
    "version": 1
  }
}