{
  "contractName": "smallest",
  "abi": [
    {
      "inputs": [
        {
          "internalType": "uint256",
          "name": "a",
          "type": "uint256"
        },
        {
          "internalType": "uint256",
          "name": "b",
          "type": "uint256"
        }
      ],
      "name": "find_smallest",
      "outputs": [
        {
          "internalType": "uint256",
          "name": "min",
          "type": "uint256"
        }
      ],
      "stateMutability": "pure",
      "type": "function",
      "constant": true
    }
  ],
  "bytecode": "0x608060405234801561001057600080fd5b50610132806100206000396000f3fe6080604052348015600f57600080fd5b506004361060285760003560e01c80636c931feb14602d575b600080fd5b60436004803603810190603f91906081565b6057565b604051604e919060c5565b60405180910390f35b6000818310606457816066565b825b905092915050565b600081359050607b8160e8565b92915050565b60008060408385031215609357600080fd5b6000609f85828601606e565b925050602060ae85828601606e565b9150509250929050565b60bf8160de565b82525050565b600060208201905060d8600083018460b8565b92915050565b6000819050919050565b60ef8160de565b811460f957600080fd5b5056fea2646970667358221220c5ad0ade7f4d96b18eb0a3c2d513477cc368d6c33ed4a41c9a0efa51f4c50a9064736f6c63430008010033",
  "immutableReferences": {},
  "source": "// SPDX-License-Identifier: MIT\npragma solidity 0.8.1;\n\ncontract smallest {\n\n function find_smallest(uint a, uint b) public pure returns (uint min)\n    {\n        min= (a<b)? a : b;\n\n    }\n    \n}\n",
  "sourcePath": "C:/MyDrive/Solidity-codes/Solidity-In-Action/practice-solidity/contracts/smallest.sol",
  "compiler": {
    "name": "solc",
    "version": "0.8.1+commit.df193b15.Emscripten.clang"
  },
  "schemaVersion": "3.4.1",
  "updatedAt": "2021-09-21T06:47:31.763Z",
  "networkType": "ethereum",
  "devdoc": {
    "kind": "dev",
    "methods": {},
    "version": 1
  },
  "userdoc": {
    "kind": "user",
    "methods": {},
    "version": 1
  }
}