{
  "contractName": "testStruct",
  "abi": [
    {
      "inputs": [
        {
          "internalType": "uint256",
          "name": "",
          "type": "uint256"
        }
      ],
      "name": "BookDetails",
      "outputs": [
        {
          "internalType": "uint256",
          "name": "id",
          "type": "uint256"
        },
        {
          "internalType": "string",
          "name": "title",
          "type": "string"
        },
        {
          "internalType": "string",
          "name": "author",
          "type": "string"
        }
      ],
      "stateMutability": "view",
      "type": "function",
      "constant": true
    },
    {
      "inputs": [
        {
          "internalType": "uint256",
          "name": "_id",
          "type": "uint256"
        },
        {
          "internalType": "string",
          "name": "_title",
          "type": "string"
        },
        {
          "internalType": "string",
          "name": "_author",
          "type": "string"
        }
      ],
      "name": "newBook",
      "outputs": [],
      "stateMutability": "nonpayable",
      "type": "function"
    }
  ],
  "bytecode": "0x608060405234801561001057600080fd5b50610648806100206000396000f3fe608060405234801561001057600080fd5b50600436106100365760003560e01c80632d29c8041461003b5780633989f51614610057575b600080fd5b61005560048036038101906100509190610385565b610089565b005b610071600480360381019061006c919061035c565b610102565b6040516100809392919061044c565b60405180910390f35b6040518060600160405280848152602001838152602001828152506000808581526020019081526020016000206000820151816000015560208201518160010190805190602001906100dc92919061023c565b5060408201518160020190805190602001906100f992919061023c565b50905050505050565b600060205280600052604060002060009150905080600001549080600101805461012b9061055a565b80601f01602080910402602001604051908101604052809291908181526020018280546101579061055a565b80156101a45780601f10610179576101008083540402835291602001916101a4565b820191906000526020600020905b81548152906001019060200180831161018757829003601f168201915b5050505050908060020180546101b99061055a565b80601f01602080910402602001604051908101604052809291908181526020018280546101e59061055a565b80156102325780601f1061020757610100808354040283529160200191610232565b820191906000526020600020905b81548152906001019060200180831161021557829003601f168201915b5050505050905083565b8280546102489061055a565b90600052602060002090601f01602090048101928261026a57600085556102b1565b82601f1061028357805160ff19168380011785556102b1565b828001600101855582156102b1579182015b828111156102b0578251825591602001919060010190610295565b5b5090506102be91906102c2565b5090565b5b808211156102db5760008160009055506001016102c3565b5090565b60006102f26102ed846104c2565b610491565b90508281526020810184848401111561030a57600080fd5b610315848285610518565b509392505050565b600082601f83011261032e57600080fd5b813561033e8482602086016102df565b91505092915050565b600081359050610356816105fb565b92915050565b60006020828403121561036e57600080fd5b600061037c84828501610347565b91505092915050565b60008060006060848603121561039a57600080fd5b60006103a886828701610347565b935050602084013567ffffffffffffffff8111156103c557600080fd5b6103d18682870161031d565b925050604084013567ffffffffffffffff8111156103ee57600080fd5b6103fa8682870161031d565b9150509250925092565b600061040f826104f2565b61041981856104fd565b9350610429818560208601610527565b610432816105ea565b840191505092915050565b6104468161050e565b82525050565b6000606082019050610461600083018661043d565b81810360208301526104738185610404565b905081810360408301526104878184610404565b9050949350505050565b6000604051905081810181811067ffffffffffffffff821117156104b8576104b76105bb565b5b8060405250919050565b600067ffffffffffffffff8211156104dd576104dc6105bb565b5b601f19601f8301169050602081019050919050565b600081519050919050565b600082825260208201905092915050565b6000819050919050565b82818337600083830152505050565b60005b8381101561054557808201518184015260208101905061052a565b83811115610554576000848401525b50505050565b6000600282049050600182168061057257607f821691505b602082108114156105865761058561058c565b5b50919050565b7f4e487b7100000000000000000000000000000000000000000000000000000000600052602260045260246000fd5b7f4e487b7100000000000000000000000000000000000000000000000000000000600052604160045260246000fd5b6000601f19601f8301169050919050565b6106048161050e565b811461060f57600080fd5b5056fea264697066735822122000f12e2372ec6e606ec9a243d0c256651474d0c9d150c99a98433efa47dfb70964736f6c63430008000033",
  "immutableReferences": {},
  "source": "// SPDX-License-Identifier: MIT\r\npragma solidity 0.8.0;\r\n\r\ncontract testStruct{\r\n   struct Book { \r\n        uint id;\r\n        string title;\r\n        string author;\r\n   }\r\n   \r\n    mapping(uint => Book) public BookDetails;\r\n    \r\n    function newBook(uint _id, string memory _title, string memory _author) public {\r\n        BookDetails[_id] = Book(_id, _title, _author);\r\n    }\r\n    \r\n}",
  "sourcePath": "C:/MyDrive/Solidity-codes/ww-solidity/mapping/contracts/testStruct.sol",
  "compiler": {
    "name": "solc",
    "version": "0.8.0+commit.c7dfd78e.Emscripten.clang"
  },
  "schemaVersion": "3.4.1",
  "updatedAt": "2021-09-04T11:17:43.374Z",
  "networkType": "ethereum",
  "devdoc": {
    "kind": "dev",
    "methods": {},
    "version": 1
  },
  "userdoc": {
    "kind": "user",
    "methods": {},
    "version": 1
  }
}